:020000040000fa
:080000000002040000000000f2
:020000040000fa
:04000800ce04000022
:020000040000fa
:04000c00ce0400001e
:020000040000fa
:04001000ce0400001a
:020000040000fa
:04001400ce04000016
:020000040000fa
:04001800ce04000012
:020000040000fa
:04001c00ce0400000e
:020000040000fa
:04002000ce0400000a
:020000040000fa
:04002400ce04000006
:020000040000fa
:04002800ce04000002
:020000040000fa
:04002c00ce040000fe
:020000040000fa
:04003000ce040000fa
:020000040000fa
:040034005204000072
:020000040000fa
:04003800b20300000f
:020000040000fa
:04003c00ce040000ee
:020000040000fa
:04004000ce040000ea
:020000040000fa
:04004400ce040000e6
:020000040000fa
:04004800ce040000e2
:020000040000fa
:04004c00ce040000de
:020000040000fa
:04005000ce040000da
:020000040000fa
:040054007004000034
:020000040000fa
:04005800960400000a
:020000040000fa
:04005c00ce040000ce
:020000040000fa
:04006000d0030000c9
:020000040000fa
:04006400ce040000c6
:020000040000fa
:04006800ce040000c2
:020000040000fa
:04006c00ce040000be
:020000040000fa
:04007000ce040000ba
:020000040000fa
:040074002204000062
:020000040000fa
:04007800ce040000b2
:020000040000fa
:04007c00ce040000ae
:020000040000fa
:04008000ce040000aa
:020000040000fa
:04008400ce040000a6
:020000040000fa
:04008800ce040000a2
:020000040000fa
:04008c00ce0400009e
:020000040000fa
:04009000ce0400009a
:020000040000fa
:04009400ce04000096
:020000040000fa
:04009800ce04000092
:020000040000fa
:04009c00ce0400008e
:020000040000fa
:0400a000ce0400008a
:020000040000fa
:0400a400ce04000086
:020000040000fa
:0400a800ce04000082
:020000040000fa
:0400ac00ce0400007e
:020000040000fa
:0400b000aa0300009f
:020000040000fa
:0400b4004a030000fb
:020000040000fa
:0400b800ce04000072
:020000040000fa
:0400bc00ce0400006e
:020000040000fa
:0400c000ce0400006a
:020000040000fa
:0400c400ce04000066
:020000040000fa
:0400c800ce04000062
:020000040000fa
:0400cc00ce0400005e
:020000040000fa
:0400d000ce0400005a
:020000040000fa
:0400d400ce04000056
:020000040000fa
:0400d800ce04000052
:020000040000fa
:0400dc00ce0400004e
:020000040000fa
:0400e000ce0400004a
:020000040000fa
:0400e400ce04000046
:020000040000fa
:0400e800ce04000042
:020000040000fa
:0400ec00ce0400003e
:020000040000fa
:0400f000ee0300001b
:020000040000fa
:0400f400ce04000036
:020000040000fa
:0400f800ce04000032
:020000040000fa
:0400fc00ce0400002e
:020000040000fa
:04010000ce04000029
:020000040000fa
:04010400ce04000025
:020000040000fa
:04010800ce04000021
:020000040000fa
:04010c00ce0400001d
:020000040000fa
:04011000ce04000019
:020000040000fa
:04011400ce04000015
:020000040000fa
:04011800ce04000011
:020000040000fa
:04011c00ce0400000d
:020000040000fa
:04012000ce04000009
:020000040000fa
:04012400ce04000005
:020000040000fa
:04012800ce04000001
:020000040000fa
:04012c00ce040000fd
:020000040000fa
:04013000ce040000f9
:020000040000fa
:04013400ce040000f5
:020000040000fa
:04013800ce040000f1
:020000040000fa
:04013c00ce040000ed
:020000040000fa
:04014000a203000016
:020000040000fa
:04014400ce040000e5
:020000040000fa
:04014800ce040000e1
:020000040000fa
:04014c00ce040000dd
:020000040000fa
:04015000ce040000d9
:020000040000fa
:04015400ce040000d5
:020000040000fa
:04015800ce040000d1
:020000040000fa
:04015c00ce040000cd
:020000040000fa
:04016000ce040000c9
:020000040000fa
:04016400ce040000c5
:020000040000fa
:04016800ce040000c1
:020000040000fa
:04016c00ce040000bd
:020000040000fa
:04017000ce040000b9
:020000040000fa
:04017400ce040000b5
:020000040000fa
:04017800ce040000b1
:020000040000fa
:04017c00ce040000ad
:020000040000fa
:04018000ce040000a9
:020000040000fa
:04018400ce040000a5
:020000040000fa
:04018800ce040000a1
:020000040000fa
:04018c00ce0400009d
:020000040000fa
:04019000ce04000099
:020000040000fa
:04019400ce04000095
:020000040000fa
:04019800ce04000091
:020000040000fa
:04019c00ce0400008d
:020000040000fa
:0401a000ce04000089
:020000040000fa
:0401a400ce04000085
:020000040000fa
:0401a800ce04000081
:020000040000fa
:0401ac00ce0400007d
:020000040000fa
:0401b000ce04000079
:020000040000fa
:0401b400ce04000075
:020000040000fa
:0401b800ce04000071
:020000040000fa
:0401bc00ce0400006d
:020000040000fa
:0401c000ce04000069
:020000040000fa
:0401c400ce04000065
:020000040000fa
:0401c800ce04000061
:020000040000fa
:0401cc00ce0400005d
:020000040000fa
:0401d000ce04000059
:020000040000fa
:0401d400ce04000055
:020000040000fa
:0401d800ce04000051
:020000040000fa
:0401dc00ce0400004d
:020000040000fa
:0401e000ce04000049
:020000040000fa
:0401e400ce04000045
:020000040000fa
:0401e800ce04000041
:020000040000fa
:0401ec00ce0400003d
:020000040000fa
:0401f000ce04000039
:020000040000fa
:0401f400ce04000035
:020000040000fa
:0401f800ce04000031
:020000040000fa
:0401fc00ce0400002d
:020000040000fa
:04020000ce04000028
:020000040000fa
:04020400ce04000024
:020000040000fa
:04020800ce04000020
:020000040000fa
:04020c00ce0400001c
:020000040000fa
:04021000ce04000018
:020000040000fa
:04021400ce04000014
:020000040000fa
:04021800ce04000010
:020000040000fa
:04021c00ce0400000c
:020000040000fa
:04022000ce04000008
:020000040000fa
:04022400ce04000004
:020000040000fa
:04022800ce04000000
:020000040000fa
:04022c00ce040000fc
:020000040000fa
:04023000ce040000f8
:020000040000fa
:04023400ce040000f4
:020000040000fa
:04023800ce040000f0
:020000040000fa
:04023c00ce040000ec
:020000040000fa
:04024000ce040000e8
:020000040000fa
:04024400ce040000e4
:020000040000fa
:04024800ce040000e0
:020000040000fa
:04024c00ce040000dc
:020000040000fa
:04025000ce040000d8
:020000040000fa
:04025400ce040000d4
:020000040000fa
:04025800ce040000d0
:020000040000fa
:04025c00ce040000cc
:020000040000fa
:04026000ce040000c8
:020000040000fa
:04026400ce040000c4
:020000040000fa
:04026800ce040000c0
:020000040000fa
:04026c00ce040000bc
:020000040000fa
:04027000ce040000b8
:020000040000fa
:04027400ce040000b4
:020000040000fa
:04027800ce040000b0
:020000040000fa
:04027c00ce040000ac
:020000040000fa
:04028000ce040000a8
:020000040000fa
:100400008f7e21000eff27000e01880000000000f3
:10041000000020000000e000020032000001200087
:1004200020028800140007005e0107000000e000c1
:1004300003003a00001127000100200002003700ed
:100440000000200001002000810f70000100320038
:100450000f000700000020000000e0000200320052
:100460000000020000000000107202000000000006
:100470000040da000000fe00604b20000000e000b9
:1004800002003200002020009001880000000600d9
:10049000a1028800800478000000eb001f003700f4
:1004a000e284440054a0b4009905ba00e2844400f8
:1004b00054a0b4009906ba00e284440054a0b400e9
:1004c0000006eb00476fde00fd07b200ae018800ba
:1004d000636ce10003003a000ad801000000eb0061
:1004e0000e003700606ce10008003a00004deb00a0
:1004f0000a05e800020039003420ec000af0a000f0
:100500008b05e900f9ff3e00040037006168e10057
:10051000010032000086eb000b00070019c7ba008b
:100520000e04e0001905ba0003003a000a00e000da
:10053000dbff3a0000000600fe07b200ae028800b2
:100540008a047800f5ff37000cd0a300e20f4d00bd
:100550001c00390089027800354dba000a05e80010
:10056000020039003420ec000af0a0008b05e900fd
:100570000f003200254dba000a05e80002003900dc
:100580003420ec000af0a0008b05e90008003200de
:100590000c00e0000600320015cdba000a05e800a4
:1005a000020039003420ec000af0a0008b05e900bd
:1005b0008984e80054a0b4000b00e000e2ff3a0098
:1005c000000006009902ba00055d78008b05e9007d
:1005d000f7ff3200c82ade00055d78008b05e900d0
:1005e000f3ff32000c00e000f1ff320019ddba0029
:1005f000eeff3700f46004000000000076610400a4
:10060000000000002c61040000000000e461040010
:10061000000000009262040000000000026204007a
:10062000000000009e62040000000000166204004a
:100630000000000034620400000000007262040048
:10064000000000007e62040000000000fc70040056
:1006500000000000f270040000000000c6700400fa
:100660000000000010400400000000001e400400d4
:10067000000000002c400400000000007c5a040030
:1006800000000000105a0400000000009a58040006
:10069000000000003600f800809fbe00829fbe0070
:1006a000849fbe00869fbe000000fa00512080009b
:1006b00000022000008060000000e0001300320013
:1006c0005120800000002200008060000000e00057
:1006d00001003200592a070051208000000021004b
:1006e000008060000000e00001003200572a07008f
:1006f0005120800000802000008060000000e000a9
:1007000001003200552a07000aa4a90050208000e9
:10071000620060000000e00002003200532a07007f
:100720000a24a9000468a9000080fa004f03be0053
:100730004f02be004f01be004f00be003600f90060
:10074000004006000000fa0008c8a9000080fa0076
:10075000004006000000fa000448a9000080fa00ea
:10076000004006003600f800809fbe00829fbe0059
:10077000849fbe00869fbe000000fa003936070045
:100780000088a9000080fa004f03be004f02be009f
:100790004f01be004f00be003600f90000400600c9
:1007a0003600f800809fbe00829fbe00849fbe007e
:1007b000869fbe000000fa002d36070001c8a90080
:1007c0000080fa004f03be004f02be004f01be0082
:1007d0004f00be003600f900004006003600f80069
:1007e000809fbe00829fbe00849fbe00869fbe0089
:1007f0000000fa00c110800000402000008060006e
:100800000000e00005003200422f070020292600ea
:10081000708588001942a9000200370070858000a9
:10082000000001000648a9000080fa004f03be0046
:100830004f02be004f01be004f00be003600f9005f
:10084000004006003600f800809fbe00829fbe0078
:10085000849fbe00869fbe000000fa00104080000a
:10086000680060000000e000070032009170800026
:1008700000202000008060000000e0000100320045
:10088000171f07000268a9000080fa004f03be008e
:100890004f02be004f01be004f00be003600f900ff
:1008a000004006003600f800809fbe00829fbe0018
:1008b000849fbe00869fbe000000fa009b350700a3
:1008c0000068a9000080fa004f03be004f02be007e
:1008d0004f01be004f00be003600f9000040060088
:1008e0003600f800809fbe00829fbe00849fbe003d
:1008f000869fbe000000fa003011800000407800a2
:1009000080407800c0332100413207000168a9000f
:100910000080fa004f03be004f02be004f01be0030
:100920004f00be003600f900004006003600f80017
:10093000809fbe00829fbe00849fbe00869fbe0037
:100940000000fa00003921005b310700e00f500081
:10095000e08f5800e00f5900e08f59000500320089
:1009600000392100b33107000080fb00201188000e
:100970000200370010c0b300c2f0b7000188a90020
:100980000080fa004f03be004f02be004f01be00c0
:100990004f00be003600f900004006000040da00bb
:1009a0000000fe00000005002800fa00889fbe003d
:1009b0008a9fbe008c9fbe0007067800878669006c
:1009c0000c003b00030478008704780008f0a100c5
:1009d00009f0a100840f5000858f5800860f590040
:1009e000890f5c00030033000cf0a20001003a0004
:1009f0000cf0a100290207006400e1005f00320052
:100a0000780147006408e100610032006c01470092
:100a1000748557003200be001201be003a04be00c9
:100a20001a05be001e039000be0a90008503530005
:100a300006003d000004fd008104fd000205fd00ec
:100a40008305fd008703ea00050378000df8a30085
:100a50000400320060041400e0841c0060051d00e6
:100a6000e0851d006022b8007d0320000d38e10004
:100a70008006eb000b0039004433dd00f300b200c8
:100a80008301730039003700848272000d02780000
:100a9000e10664008b85d1000a85d3008984d300e8
:100aa0000884d3008703e900f7ff3b0008004000fb
:100ab000898048000a0149008b81490004003b00fd
:100ac00060001000e080180060011900e08119004a
:100ad0000358a300090032008d82720084827200e4
:100ae000610260008301d1000281d3008180d300c4
:100af0000080d3000603e8001b0037000348a30072
:100b000017003a000600e000170034000603e90071
:100b10000d00a30000004800818048000201490048
:100b2000838149000348a3000f003a000600e0005b
:100b3000090034000603e9000000400081804800fd
:100b4000020149008381490001003a000003eb00e3
:100b50000348a300f5ff32006022b800020037000e
:100b60008482720061826600a001070003f0a10088
:100b70000cf0a70003f0a000dc013700640147007f
:100b80006408e10002003a000df8a300d4013a0025
:100b900032007800b20078001201be00d3013700a5
:100ba00003f0a200889fbe008a9fbe008c1f7800c1
:100bb0003f030700460333006450e1004f0032005a
:100bc0006420e1005200320003826c0007003b0009
:100bd0000905d0000306d000820f54000c065d000a
:100be0000200390002003200890178000306780013
:100bf0008582550004003d000003fd008103fd00d7
:100c00008502ea008b854200840f720002003b00df
:100c100060001000e08018006011b8000005eb00d3
:100c20007a28e1000a00390006007800c75ddd007f
:100c3000f707b200878075002d00370082817100b0
:100c40000a017800610560008180d1000080d30036
:100c50008502e900f9ff3b00060440008784480054
:100c600002003b0060041400e0841c000988a3001b
:100c7000070032008a817100828171006101640085
:100c80008904d1000884d3008b05e80017003700e1
:100c90000978a30013003a000b00e00013003400b1
:100ca0008b05e9000804440089844c000a44740060
:100cb0000978a3000d003a000b00e00007003400a3
:100cc0008b05e9000804440089844c0001003a00c7
:100cd0000b0020000978a300f7ff32000001eb00b1
:100ce00002003700828171000a017800b502070016
:100cf0000cf0a70001f0a000fe0237006420e10024
:100d000002003a00838f6c00fe0233000801be002f
:100d10000200be00f7023700889fbe008a9fbe0017
:100d20008c1f7800e20207001002200002003b0046
:100d300020868800e60237008a0062006408e1002d
:100d400002003a0020868800ee0237006108e100c8
:100d5000fcff32000800be0003047800d200070048
:100d600001f0a1000900070008f0a6000400370008
:100d70000001be0091042400b0fd200088ff0700a0
:100d800009f0a70001f0a200da023700889fbe0038
:100d90008a9fbe008c9fbe000004be00af02070009
:100da0000800be00890678006420e10008003900d0
:100db000040032000160a000120220002286880098
:100dc0005300370091fc2300b0fd20004e00370097
:100dd0000006eb0009f0a10003f823000200200048
:100de0000800be008c0107000600340001f8230053
:100df000000020000801be00ab0007000004be0098
:100e00002c0020000800be0093e82300320a2300d3
:100e100081010700120034000801be00d1fd23004b
:100e2000703d2b005fff07000005be00b3f32300f9
:100e3000f27a26000800be00b502070003f823007e
:100e40000200200056ff07000801be0055ff070002
:100e50000a01be00940007000004be000c06e80072
:100e60000800be0001f0a10002002000039823004a
:100e7000690107000800be00160035000801be0029
:100e8000a30207000005be0032cd2c0043fb230067
:100e900044ff0700809fbe001269280003d52b0085
:100ea0000a00be009a020700620f210013ef2b0018
:100eb0003cff07000a01be00950207004f01be007b
:100ec000790007000801be00910207000801be007a
:100ed00034ff07000c00e0000b0032000c10a700ec
:100ee00001f0a200b2fd200093fc23006260e1004b
:100ef0000400320022a9200063f023000c10a70098
:100f000063f8230027ff07000df0a70001f0a200ff
:100f10004f06be004f05be004f04be000000060095
:100f20000001eb0015010700040032000200200060
:100f300003f8230001f0a6001aff070000000600d6
:100f40002800fa00889fbe008a9fbe008c9fbe00ca
:100f500003866b00d10007006400e100440032000a
:100f60006408e1004a0032006100e10046003200fe
:100f70006108e10049003200ec0647006000b8005b
:100f80003d02be003d03be00f48657006011b8006c
:100f90003d04be003d05be007d0320000b00370070
:100fa0000000a0008d06e900130032000402420098
:100fb00085824a0006034b0087834b0000004000f7
:100fc00081804800020149008381490008025200e3
:100fd00089825a000a035b008b835b00f0ff3b00b1
:100fe0000802420089824a000a034b008b834b00af
:100ff0008d06e900edff3a0084827200868272005d
:10100000f707b2008782720001003200150020004d
:101010001e0490003e0b900006035400e63fb00013
:101020000368a300070032000000a7000500a0002d
:101030008301d1000281d3008180d3000080d300de
:101040000603e8008301d1000281d3008180d30030
:101050000080d3000002eb000482d200630007008e
:1010600003f0a1000cf0a70003f0a0009f003700e0
:10107000640247006408e100990032003400be00b9
:101080003401be00f6ff37006108e1009400320031
:101090006011b8006000b800f1ff370003ff2700bf
:1010a00002002000fbff3700889fbe008a9fbe0021
:1010b0008c1f7800fe0107000502330003866c00d8
:1010c0006450e1002e0032006420e1003300320061
:1010d0006150e1002f0032006120e1003100320058
:1010e00085855500eb07b0000900200008042000aa
:1010f000050037000804440089844c000a003100d0
:101100000603430087834b000001530081815b008d
:10111000f8ff33000203be000800a00008044400ea
:1011200089844c00f6ff3900c639dd008301730065
:1011300001003200130020008904d1000884d3008c
:101140000998a300050032000800a7000300a000d2
:101150008904d1000884d3008b05e8008904d100fc
:101160000884d3000001eb000281d2009501070042
:1011700001f0a1000cf0a70001f0a000dd01370094
:101180006420e100df0132000801be000200be0061
:10119000f7ff37006120e100da0132006000b8009b
:1011a000f3ff37000000200001f82700f0ff3700b0
:1011b000839f68000100e00002003d006000100015
:1011c000e08018000300e00002003d006001110013
:1011d000e0811900b20207004f00e00002003b006e
:1011e00060001000e08018000000060018002000d9
:1011f00057002000080453000d003d0006002000a9
:1012000097fc2f000740e1001e003400848272002a
:10121000610260008301d1000281d3008180d3008c
:101220000080d3000804e800f8ff3a0047002000df
:101230006104600005047400040464000d003200c1
:1012400061004000e080480060014900e081490001
:1012500003b8a500070032000603e8006538e10086
:1012600004003a008301d1000281d3008180d300c1
:101270000080d300f87f20000830e1000300350033
:10128000080378006000b8006011b8004433dd0046
:10129000f300b200830173000000060068044700f9
:1012a0000294be000094be00fc0447008694be0079
:1012b0008494be0009007800c50307000800780088
:1012c000c303070099007800814f70000b003b00ba
:1012d0000800be00af0307004f00b1000300370055
:1012e000f3ff2700f2ff2f006110b9004f06be0088
:1012f0004f05be004f04be000080fa00000006004b
:1013000081037800550107000001be006000b800ad
:101310000478a30013003a006220e10015003e00ab
:101320000d0039008301d1000281d3008180d300f8
:101330008301d1000281d3008180d3008301d100d9
:101340000281d3008180d3000538b000c42add00bb
:10135000f300b2008381720007f0a70003f0a00041
:1013600000000600f3ff2700f2ff2f006110b90014
:10137000fbff370003ff2700f7ff3700889fbe0001
:101380008a9fbe000003be00340107008505780077
:1013900082815200020020006220e10004003a0035
:1013a000f307b100040035007718e10004003500b0
:1013b0000600be00140037006000b8000f003700c0
:1013c000f50f2000faff2f008502d1000a85d30017
:1013d0008301e900fcff3b0081846200000465009a
:1013e000890f7400f2ff32008582ea000a85ea0064
:1013f0008184620000046500f200070007f0a70086
:1014000001f0a0000081eb000200e0004f05be00eb
:101410004f04be00000006001400200093033700b4
:10142000f4ff2f00910337001400fa00889fbe00dc
:101430008a9fbe008c9fbe000004be000205be0055
:10144000680047000a90be000890be0060030700d5
:101450000070a7000bf0a100304320009e02900016
:1014600080825200b0fe2f000028e10011003d00f4
:10147000b0fc2f000028e100150034001e09900088
:101480008e0890007e0090000501b0000201d1009e
:101490008180d3000080d3008502e800fbff3a0082
:1014a0000b00e00091ff3b0060001000e08018009e
:1014b0008eff3700f0ff2f00f1ff27000b00e00048
:1014c0008aff3b00010028000000200087ff370052
:1014d0006000b80085ff37000001be00df00070094
:1014e0000470a70003f0a1006509b10016003200e6
:1014f0000d0035006828e10006003500f0ff2f00e0
:10150000f1ff27000300e00013003b00010028006a
:101510000000050000004000818048008502e900cd
:10152000fcff3a0008003700f88f420002003c0040
:101530008000eb00000005008100d1000080d30096
:101540008502e800fcff3a000300e00002003b00d7
:1015500060001000e0801800000006000001be00de
:10156000be0007000470a70003f0a10003f8a30069
:1015700013003a006509b10010003200090035007f
:101580006928e10002003500010028000000050084
:1015900000004000818048008502e900fcff3a001d
:1015a00000000600f88f4200050035008100d100e0
:1015b0000080d3008502e800fcff3a00000006002e
:1015c0008000eb0000000500881f7800030478000d
:1015d0000300e00007003d0060001000e0801800fc
:1015e00060011900e081190002003b0001f02d00ac
:1015f000030037001700070008f0a70003f0a00061
:101600004f04780000000600881f7800030478006b
:101610000300e00007003d0060001000e0801800bb
:1016200060011900e081190002003b0001f02d006b
:10163000030037003200070008f0a70001f0a00007
:101640004f047800000006004f89de008201780018
:10165000edff3700889fbe00008270000402710019
:10166000048271002400320036432000c5002000af
:101670008383cf000a0039000541b1008283cf0087
:10168000070039000541b1008183cf000400390013
:101690000541b1008083cf00010039000541b10050
:1016a00085c353006022b800120032000a003b00dc
:1016b00084827200610260008301d1000281d30044
:1016c0008180d3000080d3000603e8008743e80050
:1016d000f7ff3a0007003700000040008180480013
:1016e00002014900838149000603e9008743e900bc
:1016f000f9ff3a00bdfe07004f04be0000000600df
:10170000889fbe008a9fbe000082700004027100a4
:1017100004827100260032000004be000200be00f8
:101720006011b8006b092000950220000182cf00f3
:101730000a0039000541b1000082cf0007003900de
:101740000541b1000982cf00040039000541b10014
:101750000882cf00010039000541b1000542520066
:10176000120032000a003b008281710061016400b6
:101770008100d1000080d3008984d3000884d30085
:101780008b05e8000442e800f7ff3a000700370045
:101790000804440089844c0000004800818048000f
:1017a0008b05e9000442e900f9ff3a000500070053
:1017b0004f05be004f04be00000006006011b800d7
:1017c000cfff370081002000618055000b003d00f5
:1017d0000b00200061fe2f000100e1001d0034001d
:1017e00082817100610164008904d1000884d30002
:1017f0000000e800faff3a00710020006100640078
:10180000030070000200600009003200610444001f
:10181000e0844c000988a500050032008b05e80033
:101820006808e10002003a008904d1000884d3006e
:10183000f20f20000258e10005003d00c75ddd0009
:10184000f907b200898075000800780000000600e2
:101850000bf827008b00780000000500c70ade00a7
:10186000f107b200f50fb20008003200e1cf4200ec
:10187000020032000170a00024000500810f7000fa
:10188000010032000408050044000500810f7000cb
:1018900002003a00140005008502e9000000400043
:1018a00081c04800fcff3b000170a000240005003f
:1018b0000004be00e9ff07000003be000405be00ef
:1018c0000200be00e5ff0700844f7500000006001f
:1018d0000200be006450e100050036006420e10013
:1018e000020036000968a30001003a000800be00ab
:1018f0000160a0004f0678004f05be004f04be00f7
:1019000000000600f0ff2f00f1ff2700f9ff37006d
:10191000889fbe008a9fbe008c1f7800e4ff0700ee
:10192000ebff330003866c006450e10024003200ba
:101930006420e100270032006150e1002200320003
:101940006120e100210032008b854200eb07b100ed
:101950000134b800003ab8000804420089844a0003
:10196000013ab8000030b8008880400009014a0000
:10197000040033000000400081804800020149005b
:101980008b05e900c909dd00830170000100320008
:1019900013002000c814de004814dd004709de00f3
:1019a0001200b200c808de000884700085ff07003e
:1019b00001f0a1000cf0a70001f0a000cdff37005e
:1019c0006120e100cfff32000801be000200be002e
:1019d000f7ff37006150e100fcff3a00c9ff370014
:1019e0001400fa00889fbe008a9fbe008c9fbe0034
:1019f0000004be000205be00680047000a90be0059
:101a00000890be00f20107000078a3003d003a00f4
:101a10006100e1003c0032000bf8a3003d003a00f9
:101a20006400e100380032006c0347001e009000a3
:101a3000f03fb1003602be001603be000008a3004e
:101a4000040032000402420085824a0006034b0073
:101a500087834b00100798008e1f78006000b80045
:101a60006011b8005c0020006d0120006e002000b5
:101a7000020037008d86e900fc00200004024200cd
:101a800085824a0006034b0087834b000004400018
:101a90008184480002054900838549006060e100b7
:101aa0001d60ad000804520089845a000a055b00dd
:101ab0008b855b00030039001e60ad000802be008c
:101ac0000a03be000c06e900ecff3b000e87e900ac
:101ad000e8ff3b004f077800610260008402780055
:101ae0008301d1000281d3008180d3000080d30024
:101af0001e03900041b3de00f63fb000bbfd0700bf
:101b0000fafd37000b30a0000800be000a01be003d
:101b1000f6fd37001202200022868800f0fd370013
:101b2000889fbe008a9fbe008c1f78000004be0004
:101b30004aff07000478a30026003a006120e10074
:101b40002500320009f8a30025003a006420e100d6
:101b500021003200f507b1000508a30002003200a1
:101b600000004000818048006044b800031020005d
:101b70000200200000004000818048000805440069
:101b800089854c000a0541008b8549000a055000f3
:101b90008b855800030033000a00be000204740065
:101ba000838474008301d1000281d300830f71000c
:101bb000f0ff3a008904d1000884d3006001490095
:101bc00082017800c1adde00fb07b000fdfe07001a
:101bd00048ff37000960a0000800be0045ff37003d
:101be0001202200022868800f0ff2f00f1ff27005c
:101bf00040ff37001400fa00889fbe008a9fbe0095
:101c00008c9fbe000005be000206be0068004700b3
:101c10000c90be000a90be006d0107006400e10058
:101c20001a00320016003e006100e1001a00320086
:101c30006e049000fe0490000e0b90009e0b90002e
:101c40006011b8009e0590000b38b100d50120004e
:101c500082817100610164008703d1000683d30093
:101c60008984d3000884d3008502e900f8ff3a0094
:101c7000d4fe07000df0a70001f0a0009bfd370087
:101c8000f1ff2700f0ff2f0098fd370001f8270033
:101c900000002000f7ff37006000b800f5ff3700b4
:101ca0006022b800060220000000d0008180d2002f
:101cb0000482d2008582d2000000a00002025200fd
:101cc00083825a00030031000202420083824a00ec
:101cd0000000a1000603e900f3ff3a00000006003f
:101ce000889fbe008a9fbe0030044200b0844a0034
:101cf00030054b0090854b006000b1000898be0095
:101d00000a90be000440e10005c8e10006d0e100f1
:101d100007d8e10002003100680040001008e80028
:101d20004f05be004f04be0000000600889fbe00a5
:101d30008a9fbe0010047800900490002005900057
:101d4000b00590000418540005985c0006185d006a
:101d500007985d00110020000440e10005c8e10083
:101d600006d0e10007d8e100010039008000eb0057
:101d7000108810004f05be004f04be000000060092
:101d80001200fa00889fbe008a9fbe008c9fbe0092
:101d9000e0b79f00f1b79f0082bf9f0093bf9f00f5
:101da0000605be000404be000000eb00d0b79f0093
:101db000c0b79f00b0b79f00a0b79f0090b79f002b
:101dc000000678005fb19700cfb097008201410014
:101dd0003fb097000200e00004003d00370007001c
:101de0007e805700beff0700030037003300070066
:101df0007e805700cdff0700dfb697000d00e000a2
:101e00000c0035006fb29700ffb297000fbb970030
:101e10009fbb970010002000010020006011b80057
:101e200000027200818272000203730083837300d8
:101e30001b0007000c06e80001042000810f56007b
:101e4000e0ff3a000d00e00004003d000802be0083
:101e50000a03be007e805700a1ff07005fa897001d
:101e60000000e00005003a001fb29700afb29700f3
:101e70003fb39700cfb39700090007006fb09700fa
:101e8000ffb097000fb997009fb997004f06be00ab
:101e90004f05be004f04be000080fa00000006009f
:101ea0000100070000000600a4b79f00b5b79f001f
:101eb000c6b79f00d7b79f00000006004f09de009d
:101ec00082817100b3b79f004f01de008180400026
:101ed00082807000a1b79f008fb097004f09de008d
:101ee000000040000200700090b79f007fa897009c
:101ef0004f01de00818040008280700081b79f002a
:101f00000d0007004f3ade000000400004007000a2
:101f1000f0af9f00080007000402420085824a00db
:101f200006034b0087834b00dfff07000802be005b
:101f30000a03be00000006002fb29700bfb2970050
:101f40004fb39700dfb3970000000600881f7800aa
:101f500018002000881f780089ff07008f87e9009c
:101f60004f04780000000600801feb0084ff07008c
:101f70008f87e90000000600889fbe008a9fbe0090
:101f8000e00f5000e08f5800e00f5900e08f59003b
:101f90000c003d006044b8006055b80000005400db
:101fa00081805c0002015d0083815d0018002000db
:101fb0001500070008003d00180007000004eb00b2
:101fc000050037000004eb000f00070002003d0091
:101fd0001200070018002000dcff07000800e000e6
:101fe000060032006022b8006033b80000005200e2
:101ff00081805a0002015b0083815b004f05be00b7
:102000004f04be0000000600e00f5200e08f5a00af
:10201000e00f5b00e08f5b00000006006044b8004a
:102020006055b8000402540085825c0006035d0020
:1020300087835d0000000600889fbe008a9fbe0067
:102040008c1f7800e00f5000e08f5800e00f59001f
:10205000e08f59000d003d006044b8006055b800a5
:102060000000540081805c0002015d0083815d00fe
:102070001c0020000820e10009a8e1000ab0e100ee
:102080000bb8e1000d003d00080037000006eb0032
:10209000e00f5200e08f5a00e00f5b00e08f5b0022
:1020a00006003d006044b8006055b80004025400ca
:1020b00085825c0006035d0087835d00aaff070040
:1020c0000c00e000060032006022b8006033b80067
:1020d0000000520081805a0002015b0083815b0096
:1020e0004f0678004f05be004f04be0000000600fa
:1020f000889fbe008a9fbe008c1f78000006eb0000
:10210000e00f5000e08f5800e00f5900e08f5900b9
:1021100007003d006044b8006055b800000054005e
:1021200081805c0002015d0083815d001c00200055
:10213000e00f5200e08f5a00e00f5b00e08f5b0081
:1021400007003d006044b8006055b8000402540028
:1021500085825c0006035d0087835d000c00a200a1
:102160005d0007000c00e000060032006022b800ad
:102170006033b8000000520081805a0002015b0009
:1021800083815b004f0678004f05be004f04be0000
:1021900000000600e48240001078a300070032002f
:1021a000640240001178a3003400be001401be0098
:1021b000050032000330a70000000600350078005b
:1021c000b50078001501be000330a0000000060035
:1021d0005002be00e40050005003be004439de004f
:1021e000f700b200f37f2000030161000900320014
:1021f0000218e10016003a008501720083017300a5
:10220000838173000008200015003a004000200080
:10221000130037008501720083017300838173000e
:1022200005003a0004a8be0006a8be001000200069
:102230000b0037000201e9000402420085824a00d7
:1022400006034b0087834b000748a300f9ff3200c9
:102250000740a00004a8be0006a8be002000200081
:10226000800098009200980000000600889fbe0041
:102270008a9fbe00841f78008dfd07004f00780004
:1022800011003300f0ff2f00838f6c0006003b002d
:10229000040565000a00a7000800370009f0a60041
:1022a0001000200008003700820f5400838f5c006c
:1022b000030039001000200001003e000000200053
:1022c00009f0a7000000ea004f05be004f04be0061
:1022d0000000e00000000600889fbe008a9fbe004c
:1022e0008c9fbe000404b8000506b80089044600af
:1022f00060854e000606b8000a054600e0854e00df
:102300000706b8008b054600040eb8008904460095
:102310000a854e00e0854d00050eb8000a0546000e
:102320008b854e00060eb8008b0546000416b800db
:102330000a0546008b854e000516b8008b05460041
:10234000041eb8008b0546000800be000a01be004e
:102350004f06be004f05be004f04be000000060041
:102360008001780002003700b15978000201e900cd
:102370000200e000fcff3a00000006008001780047
:1023800002003700815978000201e9000200e000f4
:08239000fcff3a00000006000a
:020000040000fa
:1023980045720000726f0000723a0000206300006e
:1023a8006f7500006c640000206e00006f74000000
:1023b800206300006f6e00006e650000637400000b
:1023c800207700006974000068200000746800002d
:1023d80065200000506f00007a7900007820000026
:1023e8006465000076690000636500000000000075
:1023f80045720000726f0000722000003078000003
:10240800303100003a20000045720000726f000071
:10241800722000007772000069740000696e000085
:1024280067200000746f0000206100002072000027
:102438006567000069730000746500007220000081
:1024480074680000726f0000756700006820000063
:102458007468000065200000493200004320000035
:10246800627500007300000045720000726f000082
:102478007220000030780000303200003a2000005e
:10248800506f00007a790000782000006361000036
:102498006e6e00006f74000020680000616e00001e
:1024a800646c000065200000616c00006c20000076
:1024b80074680000652000004932000043200000d5
:1024c800636f00006d6d0000616e000064730000b2
:1024d80020610000742000006f6e0000636500003a
:1024e80000450000727200006f720000203000008a
:1024f80078300000333a000020430000616e00008d
:102508006e6f000074200000616400006420000009
:10251800616e0000636800006f72000020740000a4
:102528006f2000007468000065200000696e0000dc
:1025380074650000726e0000616c00002064000089
:102548006576000069630000652000006c69000082
:102558007374000000450000727200006f72000082
:102568002030000078300000343a0000204300009a
:102578006f6d00006d7500006e69000063610000fa
:10258800746900006f6e000020710000756500001e
:102598007565000020690000732000006675000062
:1025a8006c6c00002c200000746f00006f2000008d
:1025b8006d6100006e790000205500005742000050
:1025c800206d0000657300007361000067650000fe
:1025d8007300000045720000726f00007220000056
:1025e80030780000303500003a20000045720000c5
:1025f800726f0000722000007265000061640000c4
:10260800696e000067200000667200006f6d0000b0
:1026180020610000207200006567000069730000f7
:102628007465000072200000667200006f6d000083
:102638002074000068650000204900003243000053
:1026480020620000757300000045000072720000ef
:102658006f7200002030000078300000363a000029
:1026680020430000616e00006e6f000074200000bf
:1026780063680000616e0000676500002074000058
:1026880068650000205500005742000020630000e4
:102698006f6e0000666900006775000072610000d7
:1026a800746900006f6e000000450000727200003f
:1026b8006f7200002030000078300000373a0000c8
:1026c800205000006f7a0000797800002063000035
:1026d800616e00006e6f00007420000068610000e9
:1026e8006e6400006c650000206100006c6c0000e6
:1026f8002074000068650000206f0000706500000d
:1027080072610000746900006f6e000073200000a1
:1027180061740000206f00006e6300006500000017
:1027280045720000726f00007220000030780000cf
:10273800303800003a200000496e0000746500003f
:10274800726e0000616c000020620000757300006a
:1027580020650000727200006f72000000450000e2
:10276800727200006f7200002030000078300000a4
:10277800393a0000204600006c61000073680000d0
:10278800206d0000656d00006f7200007920000068
:1027980069730000206300006f720000727500000a
:1027a8007074000065640000206f00007220000053
:1027b800696e0000766100006c690000640000002a
:1027c80045720000726f000072200000307800002f
:1027d800304100003a2000004e6f000074200000d5
:1027e800656e00006f7500006768000020610000da
:1027f8006e630000686f00007273000020610000c3
:1028080076610000696c0000616200006c65000080
:10281800206600006f720000207000006f730000d7
:1028280069740000696f00006e6900006e6700003f
:1028380000450000727200006f7200002030000036
:1028480078300000423a0000204500007272000013
:102858006f7200002064000075720000696e00004d
:1028680067200000746800006520000044690000cb
:10287800736300006f760000657200007920000025
:10288800707200006f630000657300007300000041
:1028980045720000726f000072200000307800005e
:1028a800304300003a20000045720000726f0000bb
:1028b8007220000064750000726900006e670000f5
:1028c8002074000068650000206100007574000035
:1028d8006f200000636100006c69000062720000f4
:1028e80061740000696f00006e20000070720000c3
:1028f8006f630000657300007300000045720000fc
:10290800726f000072200000307800003044000030
:102918003a200000496e0000766100006c690000f2
:1029280064200000667500006e6300007469000092
:102938006f6e00002070000061720000616d000081
:10294800657400006572000073200000666f000067
:1029580072200000746800006520000072650000a5
:10296800676900007374000065720000206600004b
:10297800756e000063740000696f00006e0000004f
:1029880045720000726f000072200000307800006d
:10299800304500003a20000054680000652000001f
:1029a800636f00006f720000646900006e610000d0
:1029b80074650000732000006f660000206100004d
:1029c8006e200000616e0000636800006f720000f6
:1029d8002061000072650000206e00006f74000026
:1029e800206600006f7500006e640000004500005e
:1029f800727200006f720000203000007830000012
:102a0800463a0000204600006c6100007368000030
:102a180020650000727200006f720000004500001f
:102a2800727200006f7200002030000078310000e0
:102a3800303a0000204d0000656d00006f72000004
:102a48007920000065720000726f000072000000bb
:102a580045720000726f000072200000307800009c
:102a6800313100003a200000526100006e6700001a
:102a7800696e00006720000066610000696c000054
:102a88006564000000450000727200006f7200006b
:102a98002030000078310000323a00002052000057
:102aa800616e0000676900006e6700002074000016
:102ab800696d0000656f0000757400000045000036
:102ac800727200006f720000203000007831000040
:102ad800333a000020520000616e00006769000070
:102ae8006e67000020740000696d0000656f0000cb
:102af8007574000000450000727200006f720000db
:102b08002030000078310000343a000020540000e2
:102b18007820000077610000732000006c610000dd
:102b28007465000000450000727200006f720000ba
:102b38002030000078310000353a000020550000b0
:102b480057420000206900007320000062750000f1
:102b58007379000000450000727200006f72000077
:102b68002030000078310000363a00002050000084
:102b78006f73000069740000696f00006e690000df
:102b88006e67000020660000616900006c65000047
:102b98006400000045720000726f0000722000009f
:102ba80030780000313700003a2000004e6f0000f6
:102bb80020410000636b00006e6f0000776c00001e
:102bc800656400006765000020720000656300000e
:102bd8006569000076650000640000004572000029
:102be800726f00007220000030780000463100004b
:102bf8003a200000436100006e6e00006f74000010
:102c08002063000072650000617400006520000008
:102c180074610000736b00000045000072720000d0
:102c28006f7200002030000078460000453a00002e
:102c380020480000617200006477000061720000a3
:102c4800652000006e6f00007420000072650000af
:102c5800636f0000676e0000697a00006564000019
:102c68002e200000506c00006561000073650000b4
:102c7800206300006f6e0000746100006374000040
:102c88002073000075700000706f000072740000ff
:102c9800407000006f7a0000797800002e6900000b
:102ca8006f00000045720000726f00007220000083
:102cb80030780000464600003a20000047650000d2
:102cc8006e650000726100006c20000065720000f3
:102cd800726f000072000000556e00006b6e0000fd
:102ce8006f7700006e20000065720000726f0000b0
:0c2cf800720000001c1d00001e1f0000e8
:020000040000fa
:102d04000800fa00004f7800110798002207980085
:102d1400330798003e0090000000e00005003a00f0
:102d24002e0190009e0090001e407800ba16070005
:102d340005003700ae0190001e0190009e4078000f
:102d44003e0090006f1807000080fa0000000600a3
:102d54000800fa00004f7800110798002207980035
:102d6400330798003e0090000000e00005003a00a0
:102d74002e0190009e0090001e407800101707005e
:102d840005003700ae0190001e0190009e407800bf
:102d94003e009000cb1707000080fa0000000600f8
:102da4000c00fa00004f78001107980022079800e1
:102db4003307980044079800550798005e00900078
:102dc4000000e00007003a004e029000be019000af
:102dd4002e0190009e0090001e4078005b170700b3
:102de40007003700ce0290003e029000ae01900032
:102df4001e0190009e4078005e009000e5180700d8
:102e04000080fa00000006000400fa00000f7800b9
:102e1400110798009e019000120020009e00780087
:102e24000040eb00b6ff07000080fa000000060037
:102e34000400fa00000f7800110798009e0190002a
:102e4400120020009e00780010c0b300acff070001
:102e54000080fa00000006000400fa00000f780069
:102e6400110798009e019000120020009e00780037
:102e740020c0b300a2ff07000080fa000000060093
:102e84000400fa00000f7800110798009e019000da
:102e9400120020009e00780030c0b30098ff0700a5
:102ea4000080fa00000006000400fa00000f780019
:102eb400110798009e019000120020009e007800e7
:102ec40040c0b3008eff07000080fa000000060037
:102ed4000400fa00000f7800110798009e0190008a
:102ee400120020009e00780050c0b30084ff070049
:102ef4000080fa00000006000400fa00000f7800c9
:102f0400110798009e019000120020009e00780096
:102f140060c0b3007aff07000080fa0000000600da
:102f24000400fa00000f7800110798009e01900039
:102f3400120020009e00780000c1b30070ff07005b
:102f44000080fa00000006000400fa00004f780038
:102f5400110798009e019000120020008e00780056
:102f640000c1b3007aff07000080fa0000000600e9
:102f74000400fa00000f7800110798001e00780082
:102f84009e019000220020008000780080c1b300e0
:102f94005bff07000080fa00000006000400fa004e
:102fa400000f7800110798000e0078009e01900031
:102fb400220020008000780080c1b30064ff070075
:102fc4000080fa00000006000400fa00004f7800b8
:102fd400110798009e019000120020008e007800d6
:102fe40010c2b3005aff07000080fa000000060078
:102ff4000400fa00000f7800110798009e01900069
:10300400120020009e00780010c2b3003cff0700ad
:103014000080fa00000006000a00fa002007980069
:1030240031079800420798002e0090000040780075
:1030340061c2b300014f4000ce0190001200200095
:10304400be0090001e4078002dff07001007980076
:103054003e00900010407800e74060003e00900081
:10306400014878001e0090000080fa00000006006d
:103074000a00fa00200798003107980042079800d8
:103084002e0090000040780061c2b300014f400060
:10309400ce01900012002000be0090001e40780077
:1030a40017ff0700100798003e00900010407800ba
:1030b4000080fb00780060004380de0080407800e0
:1030c4003e009000014878001e0090000080fa0045
:1030d400000006000a00fa00100798002107980073
:1030e40032079800430798001e00900000407800c3
:1030f40061c2b300014f40003e0090008040780060
:10310400300020008008dd002e0090000040780090
:1031140000c04000104798000e00e800ce01900067
:1031240012002000800078001e40780008ff07008d
:103134000080fa00000006000400fa00004f780046
:10314400110798009e019000120020008e00780064
:1031540050c1b300fefe07000080fa000000060024
:103164000600fa001007980021079800ae019000ad
:10317400120020009e00900040c1b300e0fe070052
:10318400000f78001e009000104078000080fb00c3
:103194004400de00804078001e0090000148780062
:1031a4001e0078000080fa00000006000600fa0005
:1031b4001007980021079800ae019000120020002b
:1031c4009e00900040c1b300cdfe0700000f7800c0
:1031d4001e00900010407800ef4060001e00900038
:1031e400014878001e0078000080fa000000060004
:1031f4000600fa00204798003147980022079800fb
:10320400be409000400020008008dd002e40900069
:1032140000c04000004f7800ae0190001200200072
:103224008e00780040c1b300c9fe07000080fa0098
:10323400000006000600fa00100798002107980015
:10324400ae019000120020009e00900060c1b30007
:10325400abfe0700000f78001e00900010407800bd
:10326400ef4060001e009000014878001e007800c6
:103274000080fa00000006000600fa00100798001b
:1032840021079800ae019000120020009e009000db
:1032940060c1b3009afe0700000f78001e00900082
:1032a400104078008080fb00000320000080600054
:1032b4004480de00804078001e00900001487800c1
:1032c4001e0078000080fa00000006000800fa00e2
:1032d4001007980021079800320798002e009000ec
:1032e40080407800400020008008dd001e0090002f
:1032f4000040780000c04000004f7800be019000fc
:10330400120020008e00780060c1b30090fe070018
:103314000080fa00000006000600fa00100798007a
:1033240021079800ae019000120020009e0090003a
:1033340070c1b30072fe0700000f78001e009000f9
:10334400104078000080fb004700de0080407800d9
:103354001e009000014878001e0078000080fa00ea
:10336400000006000600fa001007980021079800e4
:10337400ae019000120020009e00900070c1b300c6
:103384005ffe0700000f78001e00900010407800d8
:10339400ef4060001e009000014878001e00780095
:1033a4000080fa00000006000800fa0010079800e8
:1033b40021079800320798001e0090008040780092
:1033c400700020008008dd002e009000004078008e
:1033d40000c04000004f7800be01900012002000a1
:1033e4008e00780070c1b30059fe07000080fa0017
:1033f400000006000200fa00000f78001e007800aa
:103404008001eb002200200080007800a0c1b300fe
:103414003bfe07000080fa00000006000400fa00ea
:10342400000f7800110798000e0078009e019000ac
:103434002200200080007800a0c1b30044fe0700f1
:103444000080fa00000006000a00fa003007980025
:10345400410798000e80e800ce0190004200200051
:1034640080007800c0c1b30025fe0700000f78007b
:10347400ae4090003e009000014878003e4090002d
:10348400f2c3b300824060003e00900011409800f7
:103494003e4090000080fb004600de008040780043
:1034a4003e00900021409800ce4090003e009000e5
:1034b400314098005e4090000080fb00cf80de0029
:1034c40060f807000200200003f023000ff9070052
:1034d4003e01900020019800310198001e00780000
:1034e4000080fa00000006001200fa00700798003d
:1034f400010f98007e00900010407800204798004b
:103504007e00900010409000804078007e00900083
:10351400204090000080fb004600dd000040780061
:1035240000c07000304798007e009000304090004a
:10353400404798000e80e8008e0990003200200079
:1035440080007800c0c1b30001fe0700000f7800be
:103554001e007800e10f5000020032001e007800c7
:103564001c0037000e0890000000e00006003a003e
:103574007e009000b0009000200090000001eb005d
:103584004900070013003700660047008000eb0085
:10359400adff07001e0f60008000eb007e0090006e
:1035a400d1ff07001e0f60007e009000b000900065
:1035b400200090000e0990003b0007001e0f6000e1
:1035c400660047008000eb00c7ff07001e0f600085
:1035d4001e0078000080fa00000006000800fa00cf
:1035e40020079800310798002e00900010407800c2
:1035f400004f78002e00900010409000804078002a
:103604002e009000204090000080fb004600dd006a
:103614000040780000c07000104798002e00900011
:103624003040900020479800be01900032002000f6
:103634008e007800c0c1b300c5fd07000080fa0009
:10364400000006000400fa00000f7800110798003b
:103654000e0078009e019000120020008000780087
:10366400c0c1b300bafd07000080fa0000000600e4
:103674000400fa00000f7800110798001e0078007b
:103684008000eb00010878001e0078009e01900085
:103694001200200080007800c0c1b30098fd07002c
:1036a4000080fa00000006000800fa0010079800e5
:1036b40021079800320798001e009000ae00900089
:1036c4000001be0036f507000200200003f02300cd
:1036d40033f507007ff7070000007800004078000a
:1036e400004f7800be019000120020008e00780088
:1036f400f0c1b30096fd07000080fa000000060048
:103704000800fa0020079800310798000040eb00f9
:10371400204798000e80e800be01900012002000af
:1037240080007800f0c1b30075fd0700000f780039
:103734002e4090000080fb008000eb001ef8070084
:103744000200200003f0230070f807002e0190000f
:103754000089be001e0078000080fa000000060008
:103764000400fa00000f7800110798009e019000f1
:10377400120020009e00780020c2b30060fd070004
:103784000080fa00000006000400fa00004f7800f0
:10379400110798009e019000120020008e0078000e
:1037a40020c2b3006afd07000080fa000000060092
:1037b4000400fa00000f7800110798009e019000a1
:1037c400120020009e00780030c2b3004cfd0700b8
:1037d4000080fa00000006000400fa00004f7800a0
:1037e400110798009e019000120020008e007800be
:1037f40030c2b30056fd07000080fa000000060046
:103804000400fa00000f7800110798001e007800e9
:103814009e019000c20020008000780000c3b30025
:1038240037fd07000080fa00000006000e00fa00d1
:10383400000f7800110798002207980033079800ba
:103844004407980055079800660798000e00780012
:10385400ee019000c20020008000780000c3b30095
:103864003bfd07000080fa00000006000400fa0097
:10387400000f7800110798001e0078009e01900048
:10388400c200200080007800c0c3b3001cfd070004
:103894000080fa00000006000400fa00000f78001f
:1038a400110798001e0078009e019000120320006a
:1038b4008000780000c5b30011fd07000080fa0005
:1038c400000006003800fa00201f9800311f9800fd
:1038d4000e80e800be1990001203200080007800da
:1038e40000c5b30006fd0700000f78001e0090001d
:1038f400ae009000b0f7070002002000a3472400a8
:10390400e8f507000001be002e189000f10f20001a
:1039140081006100104278006042620081407200c0
:1039240001487800c810de00104290006042620036
:103934008140720011409800f10f200081806100e5
:103944002042900060426200814072002140980051
:10395400c818de0030419000604161008140710070
:10396400314098003e009000cf80de0035f707001c
:103974000001be002e189000f10f200081006100ac
:1039840040429000604262008140720041409800d1
:10399400c810de0050429000604262008140720014
:1039a40051409800f10f2000818061006042900036
:1039b400604262008140720061409800c818de00d5
:1039c4007041900060416100814071007140980035
:1039d4004e009000cf80de001af707000001be0001
:1039e4002e189000f10f200081006100004a900021
:1039f400604262008140720001489800c810de00f5
:103a0400104a9000604262008140720011489800a0
:103a1400f10f200081806100204a90006042620022
:103a24008140720021489800c818de003049900097
:103a34006041610081407100314898005e0090004f
:103a4400cf80de00fff607000001be002e189000b4
:103a5400f10f200081006100404a90006042620042
:103a64008140720041489800c810de00504a90001e
:103a7400604262008140720051489800f10f2000ba
:103a840081806100604a900060426200814072005f
:103a940061489800c818de007049900060416100d8
:103aa40081407100714898006e009000cf80de0064
:103ab400e4f60700020020000318240079f507004b
:103ac4000001be002e189000f10f2000810061005b
:103ad40000529000604262008140720001509800e0
:103ae400c810de00105290006042620081407200f3
:103af40011509800f10f2000818061002052900045
:103b0400604262008140720021509800c818de00b3
:103b14003051900060416100814071003150980043
:103b24007e009000cf80de00c6f607000200200071
:103b3400031824005bf507000001be002e18900056
:103b4400f10f200081006100405290006042620049
:103b54008140720041509800c810de00505290001d
:103b6400604262008140720051509800f10f2000c1
:103b74008180610060529000604262008140720066
:103b840061509800c818de007051900060416100d7
:103b940081407100715098000e089000cf80de00c3
:103ba400a8f6070002002000031824003df50700d2
:103bb4000001be002e189000f10f2000810061006a
:103bc400005a9000604262008140720001589800df
:103bd400c810de00105a90006042620081407200fa
:103be40011589800f10f200081806100205a900044
:103bf400604262008140720021589800c818de00bb
:103c04003059900060416100814071003158980042
:103c14001e089000cf80de008af607000200200014
:103c2400031824001ff507000001be002e189000a1
:103c3400f10f200081006100405a90006042620050
:103c44008140720041589800c810de00505a90001c
:103c5400604262008140720051589800f10f2000c8
:103c640081806100605a900060426200814072006d
:103c740061589800c818de007059900060416100d6
:103c840081407100715898002e089000cf80de00aa
:103c94006cf60700020020000318240001f5070059
:103ca4000001be002e189000f10f20008100610079
:103cb40000629000604262008140720001609800de
:103cc400c810de0010629000604262008140720001
:103cd40011609800f10f2000818061002062900043
:103ce400604262008140720021609800c818de00c2
:103cf4003061900060416100814071003160980042
:103d04003e089000cf80de004ef60700020020003f
:103d140003182400e3f407000001be002e189000ed
:103d2400f10f200081006100406290006042620057
:103d34008140720041609800c810de00506290001b
:103d4400604262008140720051609800f10f2000cf
:103d54008180610060629000604262008140720074
:103d640061609800c818de007061900060416100d5
:103d740081407100716098004e089000cf80de0091
:103d840030f607000200200003182400c5f40700e1
:103d94000001be002e189000f10f20008100610088
:103da400006a9000604262008140720001689800dd
:103db400c810de00106a9000604262008140720008
:103dc40011689800f10f200081806100206a900042
:103dd400604262008140720021689800c818de00c9
:103de4003069900060416100814071003168980041
:103df4005e089000cf80de0012f60700020020006b
:103e040003182400a7f407000001be002e18900038
:103e1400f10f200081006100406a9000604262005e
:103e24008140720041689800c810de00506a90001a
:103e3400604262008140720051689800f10f2000d6
:103e440081806100606a900060426200814072007b
:103e540061689800c818de007069900060416100d4
:103e640081407100716898006e089000cf80de0078
:103e7400f4f50700020020000318240089f4070069
:103e84000001be002e189000f10f20008100610097
:103e940000729000604262008140720001709800dc
:103ea400c810de001072900060426200814072000f
:103eb40011709800f10f2000818061002072900041
:103ec400604262008140720021709800c818de00d0
:103ed4003071900060416100814071003170980040
:103ee4007e089000cf80de00d6f507000200200097
:103ef400036824006bf407000001be002e18900034
:103f0400f10f200081006100407290006042620065
:103f14008140720041709800c810de005072900019
:103f2400604262008140720051709800f10f2000dd
:103f34008180610060729000604262008140720082
:103f440061709800c818de007071900060416100d3
:103f540081407100717098000e109000cf80de00d7
:103f6400b8f5070002002000036824004df40700a0
:103f74000001be002e189000f10f200081006100a6
:103f8400007a9000604262008140720001789800db
:103f9400c810de00107a9000604262008140720016
:103fa40011789800f10f200081806100207a900040
:103fb400604262008140720021789800c818de00d7
:103fc400307990006041610081407100317898003f
:103fd4001e109000cf80de009af50700020020003a
:103fe400036824002ff407000001be002e1890007f
:103ff400f10f200081006100407a9000604262006d
:104004008140720041789800c810de00507a900018
:10401400604262008140720051789800f10f2000e4
:1040240081806100607a9000604262008140720089
:1040340061789800c818de007079900060416100d2
:1040440081407100717898002e109000cf80de00be
:104054007cf50700020020000368240011f4070027
:104064000001be002e189000f10f200081006100b5
:1040740000c29000604262008140720001c098005a
:10408400c810de0010c290006042620081407200dd
:1040940011c09800f10f20008180610020c29000bf
:1040a400604262008140720021c09800c818de009e
:1040b40030c19000604161008140710031c09800be
:1040c4003e109000cf80de005ef507000001be00c8
:1040d4002e189000f10f20008100610040c2900072
:1040e400604262008140720041c09800c810de0046
:1040f40050c29000604262008140720051c098003a
:10410400f10f20008180610060c290006042620073
:104114008140720061c09800c818de0070c1900030
:10412400604161008140710071c098004e109000a0
:10413400cf80de0043f507000001be002e1890007a
:10414400f10f20008100610000ca9000604262000b
:104154008140720001c89800c810de0010ca9000a7
:10416400604262008140720011c89800f10f200083
:104174008180610020ca9000604262008140720028
:1041840021c89800c818de0030c990006041610061
:104194008140710031c898005e109000cf80de002d
:1041a40028f507000001be002e189000f10f200032
:1041b4008100610040ca9000604262008140720048
:1041c40041c89800c810de0050ca900060426200e6
:1041d4008140720051c89800f10f20008180610075
:1041e40060ca9000604262008140720061c8980019
:1041f400c818de0070c99000604161008140710000
:1042040071c898006e109000cf80de000df5070095
:104214000001be002e189000f10f20008100610003
:1042240000d29000604262008140720001d0980088
:10423400c810de0010d2900060426200814072001b
:1042440011d09800f10f20008180610020d29000ed
:10425400604262008140720021d09800c818de00dc
:1042640030d19000604161008140710031d09800ec
:104274007e109000cf80de00f2f407000001be0043
:104284002e189000f10f20008100610040d29000b0
:10429400604262008140720041d09800c810de0084
:1042a40050d29000604262008140720051d0980068
:1042b400f10f20008180610060d2900060426200b2
:1042c4008140720061d09800c818de0070d190005f
:1042d400604161008140710071d098000e18900017
:1042e400cf80de00d7f407000001be002e18900036
:1042f400f10f20008100610000da9000604262004a
:104304008140720001d89800c810de0010da9000d5
:10431400604262008140720011d89800f10f2000c1
:104324008180610020da9000604262008140720066
:1043340021d89800c818de0030d99000604161008f
:104344008140710031d898002e7090000080fb00ed
:104354008000eb0018f507000001be002e18900045
:10436400f10f20008100610040da90006042620099
:104374008140720041d89800c810de0050da9000e5
:10438400604262008140720051d89800f10f200011
:104394008180610060da90006042620081407200b6
:1043a40061d89800c818de0070d99000604161009f
:1043b4008140710071d898001e0078000080fa00d6
:1043c400000006000a00fa00300798004107980030
:1043d4000e80e800ce0190004200200080007800aa
:1043e40000c5b30046fa0700000f78001e009000d5
:1043f400ae009000f0f4070002002000a347240060
:1044040028f307003e0190000089be001e007800da
:104414000080fa00000006000c00fa004007980033
:10442400510798000000eb00100798000000eb0013
:10443400200798000000eb00300798000e80e80089
:10444400de019000620020008000780040c5b300c7
:104454002bfa0700000f78001e009000cf80de00ca
:1044640078f407000001be004e009000f10f200018
:104474008100610010427800604262008140720055
:1044840001487800c810de001042900060426200cb
:104494008140720011409800f10f2000818061007a
:1044a40020429000604262008140720021409800e6
:1044b400c818de0030419000604161008140710005
:1044c400314098002e009000cf80de005df407009c
:1044d4000001be004e009000f10f20008100610039
:1044e4004042900060426200814072004140980066
:1044f400c810de00504290006042620081407200a9
:1045040051409800f10f20008180610060429000ca
:10451400604262008140720061409800c818de0069
:1045240070419000604161008140710071409800c9
:104534003e009000cf80de0042f407000001be0080
:104544004e009000f10f200081006100004a9000ad
:10455400604262008140720001489800c810de0089
:10456400104a900060426200814072001148980035
:10457400f10f200081806100204a900060426200b7
:104584008140720021489800c818de00304990002c
:104594006041610081407100314898001e0078003c
:1045a4000080fa00000006000400fa00000f780002
:1045b400110798001e0078009e0190002200200040
:1045c40080007800e0c4b300cdf907000080fa0051
:1045d400000006000c00fa004007980051079800fc
:1045e4000000eb00100798000000eb002007980083
:1045f4000000eb00300798000e80e800de01900018
:104604006200200080007800a0c5b300bcf9070058
:10461400000f78001e009000cf80de0009f4070030
:1046240002002000031824009ef207000001be00cf
:104634004e009000f10f20008100610010427800cc
:10464400604262008140720001487800c810de00b8
:104654001042900060426200814072001140980054
:10466400f10f2000818061002042900060426200ce
:104674008140720021409800c818de00304190004b
:104684006041610081407100314098002e0090002b
:10469400cf80de00ebf307000200200003182400a3
:1046a40080f207000001be004e009000f10f2000d0
:1046b40081006100404290006042620081407200cb
:1046c40041409800c810de005042900060426200f1
:1046d4008140720051409800f10f200081806100f8
:1046e4006042900060426200814072006140980024
:1046f400c818de0070419000604161008140710083
:10470400714098003e009000cf80de00cdf307009a
:10471400020020000318240062f207000001be001a
:104724004e009000f10f200081006100004a9000cb
:10473400604262008140720001489800c810de00a7
:10474400104a900060426200814072001148980053
:10475400f10f200081806100204a900060426200d5
:104764008140720021489800c818de00304990004a
:104774006041610081407100314898001e0078005a
:104784000080fa00000006000c00fa0040079800c0
:10479400510798000000eb00100798000000eb00a0
:1047a400200798000000eb00300798000e80e80016
:1047b400de019000620020008000780000c6b30093
:1047c4004ff90700000f78001e009000cf80de0034
:1047d4009cf30700020020000318240031f20700b4
:1047e4000001be004e009000f10f20008100610026
:1047f40010427800604262008140720001487800f3
:10480400c810de00104290006042620081407200d5
:1048140011409800f10f2000818061002042900037
:10482400604262008140720021409800c818de0096
:104834003041900060416100814071003140980036
:104844002e009000cf80de007ef3070002002000df
:104854000318240013f207000001be004e0090006c
:10486400f10f20008100610040429000604262002c
:104874008140720041409800c810de005042900010
:10488400604262008140720051409800f10f2000a4
:104894008180610060429000604262008140720049
:1048a40061409800c818de007041900060416100ca
:1048b40081407100714098003e009000cf80de007e
:1048c40060f307000200200003182400f5f107003c
:1048d4000001be004e009000f10f20008100610035
:1048e400004a9000604262008140720001489800d2
:1048f400c810de00104a90006042620081407200dd
:1049040011489800f10f200081806100204a900036
:10491400604262008140720021489800c818de009d
:104924003049900060416100814071003148980035
:104934001e0078000080fa00000006000c00fa0057
:1049440040079800510798000000eb0010079800fa
:104954000000eb00200798000000eb0030079800ef
:104964000e80e800de0190006200200080007800e4
:1049740060c6b300e2f80700000f78001e00900044
:10498400cf80de002ff3070002002000031824006c
:10499400c4f107000001be004e009000f10f20009a
:1049a4008100610010427800604262008140720020
:1049b40001487800c810de00104290006042620096
:1049c4008140720011409800f10f20008180610045
:1049d40020429000604262008140720021409800b1
:1049e400c818de00304190006041610081407100d0
:1049f400314098002e009000cf80de0011f30700b4
:104a04000200200003182400a6f107000001be00e4
:104a14004e009000f10f20008100610040429000a0
:104a2400604262008140720041409800c810de007c
:104a340050429000604262008140720051409800f0
:104a4400f10f2000818061006042900060426200aa
:104a54008140720061409800c818de0070419000e7
:104a64006041610081407100714098003e009000f7
:104a7400cf80de00f3f207000200200003182400b8
:104a840088f107000001be004e009000f10f2000e5
:104a940081006100004a900060426200814072001f
:104aa40001489800c810de00104a9000604262007d
:104ab4008140720011489800f10f2000818061004c
:104ac400204a9000604262008140720021489800b0
:104ad400c818de00304990006041610081407100d7
:104ae400314898001e0078000080fa00000006009b
:104af4000e00fa0050079800610798006000b800a3
:104b04006011b80010079800210798003207980038
:104b1400430798000e80e800ee0190008200200018
:104b240080007800c0c6b30075f80700000f780055
:104b34001e009000cf80de00c2f2070002002000b9
:104b44000368240057f107000001be005e009000d6
:104b5400f10f200081006100104278006042620081
:104b64008140720001487800c810de0010429000b5
:104b7400604262008140720011409800f10f2000f1
:104b84008180610020429000604262008140720096
:104b940021409800c818de00304190006041610057
:104ba40081407100314098002e009000cf80de00db
:104bb400a4f20700020020000368240039f1070072
:104bc4000001be005e009000f10f20008100610032
:104bd400404290006042620081407200414098006f
:104be400c810de00504290006042620081407200b2
:104bf40051409800f10f20008180610060429000d4
:104c0400604262008140720061409800c818de0072
:104c140070419000604161008140710071409800d2
:104c24003e009000cf80de0086f2070002002000e4
:104c3400036824001bf107000001be005e00900021
:104c4400f10f200081006100004a90006042620080
:104c54008140720001489800c810de00104a90009c
:104c6400604262008140720011489800f10f2000f8
:104c740081806100204a900060426200814072009d
:104c840021489800c818de00304990006041610056
:104c940081407100314898004e009000cf80de00c2
:104ca40068f207000200200003682400fdf00700fa
:104cb4000001be005e009000f10f20008100610041
:104cc400404a90006042620081407200414898006e
:104cd400c810de00504a90006042620081407200b9
:104ce40051489800f10f200081806100604a9000d3
:104cf400604262008140720061489800c818de007a
:104d040070499000604161008140710071489800d1
:104d14001e0078000080fa00000006000c00fa0073
:104d240040079800510798000000eb001007980016
:104d34000000eb00200798000000eb00300798000b
:104d44000e80e800de019000620020008000780000
:104d540040c7b300eaf70700000f78001e00900078
:104d6400cf80de0037f207000001be004e00900045
:104d7400f10f20008100610010427800604262005f
:104d84008140720001487800c810de001042900093
:104d9400604262008140720011409800f10f2000cf
:104da4008180610020429000604262008140720074
:104db40021409800c818de00304190006041610035
:104dc40081407100314098002e009000cf80de00b9
:104dd4001cf207000001be004e009000f10f2000fd
:104de4008100610040429000604262008140720094
:104df40041409800c810de005042900060426200ba
:104e04008140720051409800f10f200081806100c0
:104e140060429000604262008140720061409800ec
:104e2400c818de007041900060416100814071004b
:104e3400714098003e009000cf80de0001f2070030
:104e44000001be004e009000f10f200081006100bf
:104e5400004a90006042620081407200014898005c
:104e6400c810de00104a9000604262008140720067
:104e740011489800f10f200081806100204a9000c1
:104e8400604262008140720021489800c818de0028
:104e940030499000604161008140710031489800c0
:104ea4001e0078000080fa00000006000c00fa00e2
:104eb40040079800510798000000eb001007980085
:104ec4000000eb00200798000000eb00300798007a
:104ed4000e80e800de01900062002000800078006f
:104ee400a0c7b30086f70700000f78001e009000eb
:104ef400cf80de00d3f107000001be004e00900019
:104f0400f10f2000810061001042780060426200cd
:104f14008140720001487800c810de001042900001
:104f2400604262008140720011409800f10f20003d
:104f340081806100204290006042620081407200e2
:104f440021409800c818de003041900060416100a3
:104f540081407100314098002e009000cf80de0027
:104f6400b8f107000001be004e009000f10f2000d0
:104f74008100610040429000604262008140720002
:104f840041409800c810de00504290006042620028
:104f94008140720051409800f10f2000818061002f
:104fa400604290006042620081407200614098005b
:104fb400c818de00704190006041610081407100ba
:104fc400714098003e009000cf80de009df1070004
:104fd4000001be004e009000f10f2000810061002e
:104fe400004a9000604262008140720001489800cb
:104ff400c810de00104a90006042620081407200d6
:1050040011489800f10f200081806100204a90002f
:10501400604262008140720021489800c818de0096
:10502400304990006041610081407100314898002e
:105034001e0078000080fa00000006000800fa0054
:1050440020079800310798000040eb0020479800a3
:105054000e80e800be01900012002000800078005d
:1050640000c8b30026f70700000f78002e40900018
:105074000080fb00cf80de0072f107002e0190005b
:105084000089be001e0078000080fa0000000600bf
:105094000400fa00000f7800110798009e019000a8
:1050a400120020009e00780010c8b30014f7070017
:1050b4000080fa00000006000400fa00000f7800e7
:1050c400110798001e0078009e0190002200200025
:1050d4008000780020c8b30009f707000080fa00b8
:1050e400000006000400fa00000f78001107980081
:1050f4009e019000120020009e00780040c8b3007a
:10510400fff607000080fa00000006000800fa001d
:105114001007980021079800320798001e0090009d
:105124008040780040c8b30000cf4000be0190002a
:1051340012002000ae0090001e407800f0f6070038
:105144000080fa00000006000800fa00100798002a
:1051540041479800320798001e0090008040780074
:1051640040c8b30000cf400064004700be01900077
:1051740012002000800078001e407800f4f607003a
:105184000080fa00000006000200fa00000f780018
:105194009e0278000002eb008001eb000001eb00ae
:1051a4008000eb0000cbb300fdf607001e00780082
:1051b4000000e00003003a0000382c00911c20009d
:1051c400032507000080fa00000006000600fa002c
:1051d400200798000e80e800ae0190001200200025
:1051e4008000780040c0b300c5f60700000f7800c7
:1051f4001e007800e10f500002003200c01c29009c
:10520400400137002e4090000080fb00cf80de007c
:10521400f20f200003002000820f5000838f5800fb
:1052240037013e0000060100ff003700000137008f
:105234000101370002013700030137000401370080
:105244000501370006013700070137000801370060
:10525400090137000a0137000b0137000c01370040
:105264000d0137000e0137000f0137001001370020
:105274001101370012013700130137001401370000
:1052840015013700160137001d0137001c013700d6
:105294001b0137001a0137001901370018013700c4
:1052a40017013700160137001501370014013700c4
:1052b40013013700120137001101370010013700c4
:1052c4000f0137000e0137000d0137000c013700c4
:1052d4000b0137000a0137000901370008013700c4
:1052e40007013700060137000501370004013700c4
:1052f40003013700020137000101370000013700c4
:10530400ff003700fe003700fd003700fc003700c7
:10531400fb003700fa003700f9003700f8003700c7
:10532400f7003700f6003700f5003700f4003700c7
:10533400f3003700f2003700f1003700f0003700c7
:10534400ef003700ee003700ed003700ec003700c7
:10535400eb003700ea003700e9003700e8003700c7
:10536400e7003700e6003700e5003700e4003700c7
:10537400e3003700e2003700e1003700e0003700c7
:10538400df003700de003700dd003700dc003700c7
:10539400db003700da003700d9003700d8003700c7
:1053a400d7003700d6003700d5003700d4003700c7
:1053b400d3003700d2003700d1003700d0003700c7
:1053c400cf003700ce003700cd003700cc003700c7
:1053d400cb003700ca003700c9003700c8003700c7
:1053e400c7003700c6003700c5003700c4003700c7
:1053f400c3003700c2003700c1003700c0003700c7
:10540400bf003700be003700bd003700bc003700c6
:10541400bb003700ba003700b9003700b8003700c6
:10542400b7003700b6003700b5003700b4003700c6
:10543400b3003700b2003700b1003700b0003700c6
:10544400af003700ae003700ad003700ac003700c6
:10545400ab003700aa003700a9003700a8003700c6
:10546400a7003700a6003700a5003700a4003700c6
:10547400a3003700a2003700a1003700a0003700c6
:105484009f0037009e0037009d0037009c003700c6
:105494009b0037009a0037009900370098003700c6
:1054a40097003700960037009500370094003700c6
:1054b40093003700920037009100370090003700c6
:1054c4008f0037008e0037008d0037008c003700c6
:1054d4008b0037008a0037008900370088003700c6
:1054e40087003700860037008500370084003700c6
:1054f40083003700820037008100370080003700c6
:105504007f0037007e0037007d0037007c003700c5
:105514007b0037007a0037007900370078003700c5
:1055240077003700760037007500370074003700c5
:1055340073003700720037007100370070003700c5
:105544006f0037006e0037006d0037006c003700c5
:105554006b0037006a0037006900370068003700c5
:1055640067003700660037006500370064003700c5
:1055740063003700620037006100370060003700c5
:105584005f0037005e0037005d0037005c003700c5
:105594005b0037005a0037005900370058003700c5
:1055a40057003700560037005500370054003700c5
:1055b40053003700520037005100370050003700c5
:1055c4004f0037004e0037004d0037004c003700c5
:1055d4004b0037004a0037004900370048003700c5
:1055e4004700370046003700450037003e003700cb
:1055f40043003700420037004100370040003700c5
:105604003f0037003e0037003d0037003c003700c4
:105614003b0037003a0037003900370038003700c4
:105624003300370034003700b01f2900350037003d
:10563400c01f2900330037008023290031003700c0
:10564400502729002f003700f02a29002d003700a9
:10565400e02e29002b003700903229002900370062
:1056640090352900270037004039290025003700ec
:10567400303b290023003700403e29002100370039
:10568400d04129001f003700c04429001d00370005
