:020000040000fa
:080000000002040000000000f2
:020000040000fa
:04000800c20300002f
:020000040000fa
:04000c00c20300002b
:020000040000fa
:04001000c203000027
:020000040000fa
:04001400c203000023
:020000040000fa
:04001800c20300001f
:020000040000fa
:04001c00c20300001b
:020000040000fa
:04002000c203000017
:020000040000fa
:04002400c203000013
:020000040000fa
:04002800c20300000f
:020000040000fa
:04002c00c20300000b
:020000040000fa
:04003000c203000007
:020000040000fa
:04003400260300009f
:020000040000fa
:04003800c2030000ff
:020000040000fa
:04003c00c2030000fb
:020000040000fa
:04004000c2030000f7
:020000040000fa
:04004400c2030000f3
:020000040000fa
:04004800c2030000ef
:020000040000fa
:04004c00c2030000eb
:020000040000fa
:04005000c2030000e7
:020000040000fa
:04005400c2030000e3
:020000040000fa
:04005800c2030000df
:020000040000fa
:04005c00c2030000db
:020000040000fa
:04006000c2030000d7
:020000040000fa
:04006400c2030000d3
:020000040000fa
:04006800c2030000cf
:020000040000fa
:04006c00c2030000cb
:020000040000fa
:04007000c2030000c7
:020000040000fa
:0400740092030000f3
:020000040000fa
:04007800c2030000bf
:020000040000fa
:04007c00c2030000bb
:020000040000fa
:04008000c2030000b7
:020000040000fa
:04008400c2030000b3
:020000040000fa
:04008800c2030000af
:020000040000fa
:04008c00c2030000ab
:020000040000fa
:04009000c2030000a7
:020000040000fa
:04009400c2030000a3
:020000040000fa
:04009800c20300009f
:020000040000fa
:04009c00c20300009b
:020000040000fa
:0400a000c203000097
:020000040000fa
:0400a400c203000093
:020000040000fa
:0400a800c20300008f
:020000040000fa
:0400ac00c20300008b
:020000040000fa
:0400b000c203000087
:020000040000fa
:0400b400c203000083
:020000040000fa
:0400b800c20300007f
:020000040000fa
:0400bc00c20300007b
:020000040000fa
:0400c000c203000077
:020000040000fa
:0400c400c203000073
:020000040000fa
:0400c800c20300006f
:020000040000fa
:0400cc00c20300006b
:020000040000fa
:0400d000c203000067
:020000040000fa
:0400d400c203000063
:020000040000fa
:0400d800c20300005f
:020000040000fa
:0400dc00c20300005b
:020000040000fa
:0400e000c203000057
:020000040000fa
:0400e400c203000053
:020000040000fa
:0400e800c20300004f
:020000040000fa
:0400ec00c20300004b
:020000040000fa
:0400f0005e030000ab
:020000040000fa
:0400f400c203000043
:020000040000fa
:0400f800c20300003f
:020000040000fa
:0400fc00c20300003b
:020000040000fa
:04010000c203000036
:020000040000fa
:04010400c203000032
:020000040000fa
:04010800c20300002e
:020000040000fa
:04010c00c20300002a
:020000040000fa
:04011000c203000026
:020000040000fa
:04011400c203000022
:020000040000fa
:04011800c20300001e
:020000040000fa
:04011c00c20300001a
:020000040000fa
:04012000c203000016
:020000040000fa
:04012400c203000012
:020000040000fa
:04012800c20300000e
:020000040000fa
:04012c00c20300000a
:020000040000fa
:04013000c203000006
:020000040000fa
:04013400c203000002
:020000040000fa
:04013800c2030000fe
:020000040000fa
:04013c00c2030000fa
:020000040000fa
:04014000c2030000f6
:020000040000fa
:04014400c2030000f2
:020000040000fa
:04014800c2030000ee
:020000040000fa
:04014c00c2030000ea
:020000040000fa
:04015000c2030000e6
:020000040000fa
:04015400c2030000e2
:020000040000fa
:04015800c2030000de
:020000040000fa
:04015c00c2030000da
:020000040000fa
:04016000c2030000d6
:020000040000fa
:04016400c2030000d2
:020000040000fa
:04016800c2030000ce
:020000040000fa
:04016c00c2030000ca
:020000040000fa
:04017000c2030000c6
:020000040000fa
:04017400c2030000c2
:020000040000fa
:04017800c2030000be
:020000040000fa
:04017c00c2030000ba
:020000040000fa
:04018000c2030000b6
:020000040000fa
:04018400c2030000b2
:020000040000fa
:04018800c2030000ae
:020000040000fa
:04018c00c2030000aa
:020000040000fa
:04019000c2030000a6
:020000040000fa
:04019400c2030000a2
:020000040000fa
:04019800c20300009e
:020000040000fa
:04019c00c20300009a
:020000040000fa
:0401a000c203000096
:020000040000fa
:0401a400c203000092
:020000040000fa
:0401a800c20300008e
:020000040000fa
:0401ac00c20300008a
:020000040000fa
:0401b000c203000086
:020000040000fa
:0401b400c203000082
:020000040000fa
:0401b800c20300007e
:020000040000fa
:0401bc00c20300007a
:020000040000fa
:0401c000c203000076
:020000040000fa
:0401c400c203000072
:020000040000fa
:0401c800c20300006e
:020000040000fa
:0401cc00c20300006a
:020000040000fa
:0401d000c203000066
:020000040000fa
:0401d400c203000062
:020000040000fa
:0401d800c20300005e
:020000040000fa
:0401dc00c20300005a
:020000040000fa
:0401e000c203000056
:020000040000fa
:0401e400c203000052
:020000040000fa
:0401e800c20300004e
:020000040000fa
:0401ec00c20300004a
:020000040000fa
:0401f000c203000046
:020000040000fa
:0401f400c203000042
:020000040000fa
:0401f800c20300003e
:020000040000fa
:0401fc00c20300003a
:020000040000fa
:04020000c203000035
:020000040000fa
:04020400c203000031
:020000040000fa
:04020800c20300002d
:020000040000fa
:04020c00c203000029
:020000040000fa
:04021000c203000025
:020000040000fa
:04021400c203000021
:020000040000fa
:04021800c20300001d
:020000040000fa
:04021c00c203000019
:020000040000fa
:04022000c203000015
:020000040000fa
:04022400c203000011
:020000040000fa
:04022800c20300000d
:020000040000fa
:04022c00c203000009
:020000040000fa
:04023000c203000005
:020000040000fa
:04023400c203000001
:020000040000fa
:04023800c2030000fd
:020000040000fa
:04023c00c2030000f9
:020000040000fa
:04024000c2030000f5
:020000040000fa
:04024400c2030000f1
:020000040000fa
:04024800c2030000ed
:020000040000fa
:04024c00c2030000e9
:020000040000fa
:04025000c2030000e5
:020000040000fa
:04025400c2030000e1
:020000040000fa
:04025800c2030000dd
:020000040000fa
:04025c00c2030000d9
:020000040000fa
:04026000c2030000d5
:020000040000fa
:04026400c2030000d1
:020000040000fa
:04026800c2030000cd
:020000040000fa
:04026c00c2030000c9
:020000040000fa
:04027000c2030000c5
:020000040000fa
:04027400c2030000c1
:020000040000fa
:04027800c2030000bd
:020000040000fa
:04027c00c2030000b9
:020000040000fa
:04028000c2030000b5
:020000040000fa
:100400006f1721000eff27000e018800000000007a
:10041000000020000000e000020032000001200087
:100420002002880014000700d80007000000e00048
:1004300003003a00809524000100200002003700ec
:100440000000200001002000810f70000100320038
:100450000f000700000020000000e0000200320052
:100460000000020000000000a64902000000000099
:100470000040da000000fe00604b20000000e000b9
:1004800002003200002020009001880000000600d9
:10049000a1028800800478000000eb001f003700f4
:1004a000e284440054a0b4009905ba00e2844400f8
:1004b00054a0b4009906ba00e284440054a0b400e9
:1004c0000006eb00476fde00fd07b200ae018800ba
:1004d000636ce10003003a000ad801000000eb0061
:1004e0000e003700606ce10008003a00004deb00a0
:1004f0000a05e800020039003420ec000af0a000f0
:100500008b05e900f9ff3e00040037006168e10057
:10051000010032000086eb000b00070019c7ba008b
:100520000e04e0001905ba0003003a000a00e000da
:10053000dbff3a0000000600fe07b200ae028800b2
:100540008a047800f5ff37000cd0a300e20f4d00bd
:100550001c00390089027800354dba000a05e80010
:10056000020039003420ec000af0a0008b05e900fd
:100570000f003200254dba000a05e80002003900dc
:100580003420ec000af0a0008b05e90008003200de
:100590000c00e0000600320015cdba000a05e800a4
:1005a000020039003420ec000af0a0008b05e900bd
:1005b0008984e80054a0b4000b00e000e2ff3a0098
:1005c000000006009902ba00055d78008b05e9007d
:1005d000f7ff3200c82ade00055d78008b05e900d0
:1005e000f3ff32000c00e000f1ff320019ddba0029
:1005f000eeff370098450400000000002846040084
:1006000000000000de450400000000007a460400ff
:1006100000000000444704000000000050470400b0
:10062000000000009846040000000000ac460400f2
:1006300000000000ca460400000000000847040053
:100640000000000014470400000000003600f8001d
:10065000809fbe00829fbe00849fbe00869fbe001a
:100660000000fa00ad220700a07080004c00de0000
:10067000614060000004a200614060000080fb0057
:10068000610060004c00dd00a2708000f1ff2e00d0
:100690008100610001007000a07088000068a9005e
:1006a0000080fa004f03be004f02be004f01be00a3
:1006b0004f00be003600f900004006003600f8008a
:1006c000809fbe00829fbe00849fbe00869fbe00aa
:1006d0000000fa00c110800000402000008060008f
:1006e0000000e00005003200d5210700407424001e
:1006f000b08488001942a90002003700b08480004d
:10070000000001000648a9000080fa004f03be0067
:100710004f02be004f01be004f00be003600f90080
:10072000004006003600f800809fbe00829fbe0099
:10073000849fbe00869fbe000000fa00104080002b
:10074000680060000000e000070032009170800047
:1007500000202000008060000000e0000100320066
:10076000981507000268a9000080fa004f03be0038
:100770004f02be004f01be004f00be003600f90020
:10078000004006000040da000000fe000000050006
:1007900003f0a200889fbe008a9fbe008c1f7800d5
:1007a000db010700e20133006450e1004f0032003a
:1007b0006420e1005200320003826c0007003b001d
:1007c0000905d0000306d000820f54000c065d001e
:1007d0000200390002003200890178000306780027
:1007e0008582550004003d000003fd008103fd00eb
:1007f0008502ea008b854200840f720002003b00f4
:1008000060001000e08018006011b8000005eb00e7
:100810007a28e1000a00390006007800c75ddd0093
:10082000f707b200878075002d00370082817100c4
:100830000a017800610560008180d1000080d3004a
:100840008502e900f9ff3b00060440008784480068
:1008500002003b0060041400e0841c000988a3002f
:10086000070032008a817100828171006101640099
:100870008904d1000884d3008b05e80017003700f5
:100880000978a30013003a000b00e00013003400c5
:100890008b05e9000804440089844c000a44740074
:1008a0000978a3000d003a000b00e00007003400b7
:1008b0008b05e9000804440089844c0001003a00db
:1008c0000b0020000978a300f7ff32000001eb00c5
:1008d00002003700828171000a017800510107008f
:1008e0000cf0a70001f0a0009a0137006420e1009d
:1008f00002003a00838f6c009a0133000801be00a9
:100900000200be0093013700889fbe008a9fbe0090
:100910008c1f78007e0107001002200002003b00bf
:10092000c0848800820137008a0062006408e10008
:1009300002003a00c08488008a0137006108e100a3
:10094000fcff32000800be000304780078000700b6
:1009500001f0a1000900070008f0a600040037001c
:100960000001be0091042400b0fd200088ff0700b4
:1009700009f0a70001f0a20076013700889fbe00b1
:100980008a9fbe008c9fbe000004be004b01070082
:100990000800be00890678006420e10008003900e4
:1009a000040032000160a00012022000c28488000e
:1009b0005300370091fc2300b0fd20004e003700ab
:1009c0000006eb0009f0a10003f82300020020005c
:1009d0000800be00ce0007000600340001f8230026
:1009e000000020000801be00510007000004be0006
:1009f0002c0020000800be0093e82300320a2300e8
:100a0000c3000700120034000801be00d1fd23001e
:100a1000703d2b005fff07000005be00b3f323000d
:100a2000f27a26000800be005101070003f82300f7
:100a30000200200056ff07000801be0055ff070016
:100a40000a01be003a0007000004be000c06e800e0
:100a50000800be0001f0a10002002000039823005e
:100a6000ab0007000800be00160035000801be00fc
:100a70003f0107000005be0032cd2c0043fb2300e0
:100a800044ff0700809fbe001269280003d52b0099
:100a90000a00be0036010700620f210013ef2b0091
:100aa0003cff07000a01be00310107004f01be00f4
:100ab0001f0007000801be002d0107000801be004d
:100ac00034ff07000c00e0000b0032000c10a70000
:100ad00001f0a200b2fd200093fc23006260e1005f
:100ae0000400320022a9200063f023000c10a700ac
:100af00063f8230027ff07000df0a70001f0a20014
:100b00004f06be004f05be004f04be0000000600a9
:100b10000001eb0057000700040032000200200033
:100b200003f8230001f0a6001aff070000000600ea
:100b3000889fbe008a9fbe008c1f7800f4000700cb
:100b4000fb00330003866c006450e1002e0032008d
:100b50006420e100330032006150e1002f003200d8
:100b60006120e1003100320085855500eb07b000bf
:100b70000900200008042000050037000804440094
:100b800089844c000a0031000603430087834b0030
:100b90000001530081815b00f8ff33000203be00b7
:100ba0000800a0000804440089844c00f6ff3900c6
:100bb000c639dd00830173000100320013002000fc
:100bc0008904d1000884d3000998a30005003200ed
:100bd0000800a7000300a0008904d1000884d30006
:100be0008b05e8008904d1000884d3000001eb00e4
:100bf0000281d2008b00070001f0a1000cf0a700d9
:100c000001f0a000d30037006420e100d5003200dd
:100c10000801be000200be00f7ff37006120e100be
:100c2000d00032006000b800f3ff37000000200061
:100c300001f82700f0ff3700839f68000100e00003
:100c400002003d0060001000e08018000300e0009a
:100c500002003d0060011100e08119002d01070034
:100c60004f00e00002003b0060001000e080180030
:100c700000000600889fbe008a9fbe000003be00e1
:100c80008e00070085057800828152000200200056
:100c90006220e10004003a00f307b10004003500cf
:100ca0007718e100040035000600be00140037008c
:100cb0006000b8000f003700f50f2000faff2f008a
:100cc0008502d1000a85d3008301e900fcff3b00c7
:100cd0008184620000046500890f7400f2ff320015
:100ce0008582ea000a85ea008184620000046500ca
:100cf0004c00070007f0a70001f0a0000081eb0006
:100d00000200e0004f05be004f04be0000000600d8
:100d1000140020000f013700f4ff2f000d013700f1
:100d20000001be00650007000470a70003f0a100e9
:100d30006509b100160032000d0035006828e10099
:100d400006003500f0ff2f00f1ff27000300e00050
:100d500013003b00010028000000050000004000d7
:100d6000818048008502e900fcff3a000800370056
:100d7000f88f420002003c008000eb0000000500fc
:100d80008100d1000080d3008502e800fcff3a001a
:100d90000300e00002003b0060001000e08018004b
:100da000000006000001be00440007000470a70018
:100db00003f0a10003f8a30013003a006509b10095
:100dc00010003200090035006928e10002003500fa
:100dd000010028000000050000004000818048005c
:100de0008502e900fcff3a0000000600f88f42008f
:100df000050035008100d1000080d3008502e800a5
:100e0000fcff3a00000006008000eb000000050037
:100e10004f89de0082017800e90037006011b800d8
:100e2000f700370081002000618055000b003d0075
:100e30000b00200061fe2f000100e1001d003400c6
:100e400082817100610164008904d1000884d300ab
:100e50000000e800faff3a00710020006100640021
:100e600003007000020060000900320061044400c9
:100e7000e0844c000988a500050032008b05e800dd
:100e80006808e10002003a008904d1000884d30018
:100e9000f20f20000258e10005003d00c75ddd00b3
:100ea000f907b2008980750008007800000006008c
:100eb0000bf827008b00780000000500c70ade0051
:100ec000f107b200f50fb20008003200e1cf420096
:100ed000020032000170a00024000500810f7000a4
:100ee000010032000408050044000500810f700075
:100ef00002003a00140005008502e90000004000ed
:100f000081c04800fcff3b000170a00024000500e8
:100f10000004be00e9ff07000003be000405be0098
:100f20000200be00e5ff0700844f750000000600c8
:100f30000200be006450e100050036006420e100bc
:100f4000020036000968a30001003a000800be0054
:100f50000160a0004f0678004f05be004f04be00a0
:100f600000000600f0ff2f00f1ff2700f9ff370017
:100f7000889fbe008a9fbe008c1f7800e4ff070098
:100f8000ebff330003866c006450e1002400320064
:100f90006420e100270032006150e10022003200ad
:100fa0006120e100210032008b854200eb07b10097
:100fb0000134b800003ab8000804420089844a00ad
:100fc000013ab8000030b8008880400009014a00aa
:100fd0000400330000004000818048000201490005
:100fe0008b05e900c909dd008301700001003200b2
:100ff00013002000c814de004814dd004709de009d
:101000001200b200c808de000884700085ff0700e7
:1010100001f0a1000cf0a70001f0a000cdff370007
:101020006120e100cfff32000801be000200be00d7
:10103000f7ff37006150e100fcff3a00c9ff3700bd
:10104000889fbe008a9fbe008c1f78000004be00ef
:101050009aff07000478a30026003a006120e1000f
:101060002500320009f8a30025003a006420e100c1
:1010700021003200f507b1000508a300020032008c
:1010800000004000818048006044b8000310200048
:101090000200200000004000818048000805440054
:1010a00089854c000a0541008b8549000a055000de
:1010b0008b855800030033000a00be000204740050
:1010c000838474008301d1000281d300830f7100f7
:1010d000f0ff3a008904d1000884d3006001490080
:1010e00082017800c1adde00fb07b0004dff0700b4
:1010f00098ff37000960a0000800be0095ff370088
:1011000012022000c2848800f0ff2f00f1ff2700a8
:1011100090ff37006022b800060220000000d000d7
:101120008180d2000482d2008582d2000000a0001b
:101130000202520083825a00030031000202420080
:1011400083824a000000a1000603e900f3ff3a0091
:1011500000000600889fbe008a9fbe00841f7800a2
:101160006bff07004f00780011003300f0ff2f00e5
:10117000838f6c0006003b00040565000a00a70091
:101180000800370009f0a600100020000800370012
:10119000820f5400838f5c00030039001000200090
:1011a00001003e000000200009f0a7000000ea0056
:1011b0004f05be004f04be000000e0000000060026
:1011c000881f7800030478000300e00007003d005a
:1011d00060001000e080180060011900e081190033
:1011e00002003b0001f02d0003003700040007005f
:1011f00008f0a70001f0a0004f04780000000600ee
:10120000889fbe008a9fbe000082700004027100a9
:1012100004827100260032000004be000200be00fd
:101220006011b8006b092000950220000182cf00f8
:101230000a0039000541b1000082cf0007003900e3
:101240000541b1000982cf00040039000541b10019
:101250000882cf00010039000541b100054252006b
:10126000120032000a003b008281710061016400bb
:101270008100d1000080d3008984d3000884d3008a
:101280008b05e8000442e800f7ff3a00070037004a
:101290000804440089844c00000048008180480014
:1012a0008b05e9000442e900f9ff3a00ddfe070082
:1012b0004f05be004f04be0000000600800178000c
:1012c00002003700b15978000201e9000200e00095
:1012d000fcff3a00000006008001780002003700a1
:1012e000815978000201e9000200e000fcff3a00a9
:0412f00000000600f4
:020000040000fa
:1012f40045720000726f0000723a00002063000023
:101304006f7500006c640000206e00006f740000b4
:10131400206300006f6e00006e65000063740000bf
:1013240020770000697400006820000074680000e1
:1013340065200000506f00007a79000078200000da
:101344006465000076690000636500000000000029
:1013540045720000726f00007220000030780000b7
:10136400303100003a20000045720000726f000026
:10137400722000007772000069740000696e00003a
:1013840067200000746f00002061000020720000dc
:101394006567000069730000746500007220000036
:1013a40074680000726f0000756700006820000018
:1013b40074680000652000004932000043200000ea
:1013c400627500007300000045720000726f000037
:1013d4007220000030780000303200003a20000013
:1013e400506f00007a7900007820000063610000eb
:1013f4006e6e00006f74000020680000616e0000d3
:10140400646c000065200000616c00006c2000002a
:101414007468000065200000493200004320000089
:10142400636f00006d6d0000616e00006473000066
:1014340020610000742000006f6e000063650000ee
:1014440000450000727200006f720000203000003e
:1014540078300000333a000020430000616e000041
:101464006e6f0000742000006164000064200000be
:10147400616e0000636800006f7200002074000059
:101484006f2000007468000065200000696e000091
:1014940074650000726e0000616c0000206400003e
:1014a4006576000069630000652000006c69000037
:1014b4007374000000450000727200006f72000037
:1014c4002030000078300000343a0000204300004f
:1014d4006f6d00006d7500006e69000063610000af
:1014e400746900006f6e00002071000075650000d3
:1014f4007565000020690000732000006675000017
:101504006c6c00002c200000746f00006f20000041
:101514006d6100006e790000205500005742000004
:10152400206d0000657300007361000067650000b2
:101534007300000045720000726f0000722000000a
:1015440030780000303500003a2000004572000079
:10155400726f000072200000726500006164000078
:10156400696e000067200000667200006f6d000065
:1015740020610000207200006567000069730000ac
:101584007465000072200000667200006f6d000038
:101594002074000068650000204900003243000008
:1015a40020620000757300000045000072720000a4
:1015b4006f7200002030000078300000363a0000de
:1015c40020430000616e00006e6f00007420000074
:1015d40063680000616e000067650000207400000d
:1015e4006865000020550000574200002063000099
:1015f4006f6e00006669000067750000726100008c
:10160400746900006f6e00000045000072720000f3
:101614006f7200002030000078300000373a00007c
:10162400205000006f7a00007978000020630000e9
:10163400616e00006e6f000074200000686100009d
:101644006e6400006c650000206100006c6c00009a
:101654002074000068650000206f000070650000c1
:1016640072610000746900006f6e00007320000056
:1016740061740000206f00006e63000065000000cc
:1016840045720000726f0000722000003078000084
:10169400303800003a200000496e000074650000f4
:1016a400726e0000616c000020620000757300001f
:1016b40020650000727200006f7200000045000097
:1016c400727200006f720000203000007830000059
:1016d400393a0000204600006c6100007368000085
:1016e400206d0000656d00006f720000792000001d
:1016f40069730000206300006f72000072750000bf
:101704007074000065640000206f00007220000007
:10171400696e0000766100006c69000064000000de
:1017240045720000726f00007220000030780000e3
:10173400304100003a2000004e6f00007420000089
:10174400656e00006f75000067680000206100008e
:101754006e630000686f0000727300002061000077
:1017640076610000696c0000616200006c65000035
:10177400206600006f720000207000006f7300008c
:1017840069740000696f00006e6900006e670000f4
:1017940000450000727200006f72000020300000eb
:1017a40078300000423a00002045000072720000c8
:1017b4006f7200002064000075720000696e000002
:1017c4006720000074680000652000004469000080
:1017d400736300006f7600006572000079200000da
:1017e400707200006f6300006573000073000000f6
:1017f40045720000726f0000722000003078000013
:10180400304300003a20000045720000726f00006f
:101814007220000064750000726900006e670000a9
:1018240020740000686500002061000075740000e9
:101834006f200000636100006c69000062720000a8
:1018440061740000696f00006e2000007072000077
:101854006f630000657300007300000045720000b0
:10186400726f0000722000003078000030440000e5
:101874003a200000496e0000766100006c690000a7
:1018840064200000667500006e6300007469000047
:101894006f6e00002070000061720000616d000036
:1018a400657400006572000073200000666f00001c
:1018b400722000007468000065200000726500005a
:1018c4006769000073740000657200002066000000
:1018d400756e000063740000696f00006e00000004
:1018e40045720000726f0000722000003078000022
:1018f400304500003a2000005468000065200000d4
:10190400636f00006f720000646900006e61000084
:1019140074650000732000006f6600002061000001
:101924006e200000616e0000636800006f720000aa
:101934002061000072650000206e00006f740000da
:10194400206600006f7500006e6400000045000012
:10195400727200006f7200002030000078300000c6
:10196400463a0000204600006c61000073680000e5
:1019740020650000727200006f72000000450000d4
:10198400727200006f720000203000007831000095
:10199400303a0000204d0000656d00006f720000b9
:1019a4007920000065720000726f00007200000070
:1019b40045720000726f0000722000003078000051
:1019c400313100003a200000526100006e670000cf
:1019d400696e00006720000066610000696c000009
:1019e4006564000000450000727200006f72000020
:1019f4002030000078310000323a0000205200000c
:101a0400616e0000676900006e67000020740000ca
:101a1400696d0000656f00007574000000450000ea
:101a2400727200006f7200002030000078310000f4
:101a3400333a000020520000616e00006769000024
:101a44006e67000020740000696d0000656f00007f
:101a54007574000000450000727200006f7200008f
:101a64002030000078310000343a00002054000097
:101a74007820000077610000732000006c61000092
:101a84007465000000450000727200006f7200006f
:101a94002030000078310000353a00002055000065
:101aa40057420000206900007320000062750000a6
:101ab4007379000000450000727200006f7200002c
:101ac4002030000078310000363a00002050000039
:101ad4006f73000069740000696f00006e69000094
:101ae4006e67000020660000616900006c650000fc
:101af4006400000045720000726f00007220000054
:101b040030780000313700003a2000004e6f0000aa
:101b140020410000636b00006e6f0000776c0000d2
:101b240065640000676500002072000065630000c2
:101b340065690000766500006400000045720000dd
:101b4400726f0000722000003078000046310000ff
:101b54003a200000436100006e6e00006f740000c4
:101b640020630000726500006174000065200000bd
:101b740074610000736b0000004500007272000085
:101b84006f7200002030000078460000453a0000e3
:101b94002048000061720000647700006172000058
:101ba400652000006e6f0000742000007265000064
:101bb400636f0000676e0000697a000065640000ce
:101bc4002e200000506c0000656100007365000069
:101bd400206300006f6e00007461000063740000f5
:101be4002073000075700000706f000072740000b4
:101bf400407000006f7a0000797800002e690000c0
:101c04006f00000045720000726f00007220000037
:101c140030780000464600003a2000004765000086
:101c24006e650000726100006c20000065720000a7
:101c3400726f000072000000556e00006b6e0000b1
:101c44006f7700006e20000065720000726f000064
:0c1c5400720000001c1d00001e1f00009c
:020000040000fa
:101c60000800fa00004f780011079800220798003a
:101c7000330798003e0090000000e00005003a00a5
:101c80002e0190009e0090001e4078001d1107005c
:101c900005003700ae0190001e0190009e407800c4
:101ca0003e009000d21207000080fa0000000600fb
:101cb0000800fa00004f78001107980022079800ea
:101cc000330798003e0090000000e00005003a0055
:101cd0002e0190009e0090001e40780073110700b6
:101ce00005003700ae0190001e0190009e40780074
:101cf0003e0090002e1207000080fa00000006004f
:101d00000c00fa00004f7800110798002207980095
:101d10003307980044079800550798005e0090002c
:101d20000000e00007003a004e029000be01900063
:101d30002e0190009e0090001e407800be1107000a
:101d400007003700ce0290003e029000ae019000e6
:101d50001e0190009e4078005e009000481307002e
:101d60000080fa00000006000400fa00000f78006e
:101d7000110798009e019000120020009e0078003c
:101d80000040eb00b6ff07000080fa0000000600ec
:101d90000400fa00000f7800110798009e019000df
:101da000120020009e00780010c0b300acff0700b6
:101db0000080fa00000006000400fa00000f78001e
:101dc000110798009e019000120020009e007800ec
:101dd00020c0b300a2ff07000080fa000000060048
:101de0000400fa00000f7800110798009e0190008f
:101df000120020009e00780030c0b30098ff07005a
:101e00000080fa00000006000400fa00000f7800cd
:101e1000110798009e019000120020009e0078009b
:101e200040c0b3008eff07000080fa0000000600eb
:101e30000400fa00000f7800110798009e0190003e
:101e4000120020009e00780050c0b30084ff0700fd
:101e50000080fa00000006000400fa00000f78007d
:101e6000110798009e019000120020009e0078004b
:101e700060c0b3007aff07000080fa00000006008f
:101e80000400fa00000f7800110798009e019000ee
:101e9000120020009e00780000c1b30070ff070010
:101ea0000080fa00000006000400fa00004f7800ed
:101eb000110798009e019000120020008e0078000b
:101ec00000c1b3007aff07000080fa00000006009e
:101ed0000400fa00000f7800110798001e00780037
:101ee0009e019000220020008000780080c1b30095
:101ef0005bff07000080fa00000006000400fa0003
:101f0000000f7800110798000e0078009e019000e5
:101f1000220020008000780080c1b30064ff070029
:101f20000080fa00000006000400fa00004f78006c
:101f3000110798009e019000120020008e0078008a
:101f400010c2b3005aff07000080fa00000006002c
:101f50000400fa00000f7800110798009e0190001d
:101f6000120020009e00780010c2b3003cff070062
:101f70000080fa00000006000a00fa00200798001e
:101f800031079800420798002e009000004078002a
:101f900061c2b300014f4000ce019000120020004a
:101fa000be0090001e4078002dff0700100798002b
:101fb0003e00900010407800e74060003e00900036
:101fc000014878001e0090000080fa000000060022
:101fd0000a00fa002007980031079800420798008d
:101fe0002e0090000040780061c2b300014f400015
:101ff000ce01900012002000be0090001e4078002c
:1020000017ff0700100798003e009000104078006e
:102010000080fb00780060004380de008040780094
:102020003e009000014878001e0090000080fa00f9
:10203000000006000a00fa00100798002107980027
:1020400032079800430798001e0090000040780077
:1020500061c2b300014f40003e0090008040780014
:10206000300020008008dd002e0090000040780045
:1020700000c04000104798000e00e800ce0190001c
:1020800012002000800078001e40780008ff070042
:102090000080fa00000006000400fa00004f7800fb
:1020a000110798009e019000120020008e00780019
:1020b00050c1b300fefe07000080fa0000000600d9
:1020c0000600fa001007980021079800ae01900062
:1020d000120020009e00900040c1b300e0fe070007
:1020e000000f78001e009000104078000080fb0078
:1020f0004400de00804078001e0090000148780017
:102100001e0078000080fa00000006000600fa00b9
:102110001007980021079800ae01900012002000df
:102120009e00900040c1b300cdfe0700000f780074
:102130001e00900010407800ef4060001e009000ec
:10214000014878001e0078000080fa0000000600b8
:102150000600fa00204798003147980022079800af
:10216000be409000400020008008dd002e4090001e
:1021700000c04000004f7800ae0190001200200027
:102180008e00780040c1b300c9fe07000080fa004d
:10219000000006000600fa001007980021079800ca
:1021a000ae019000120020009e00900060c1b300bc
:1021b000abfe0700000f78001e0090001040780072
:1021c000ef4060001e009000014878001e0078007b
:1021d0000080fa00000006000600fa0010079800d0
:1021e00021079800ae019000120020009e00900090
:1021f00060c1b3009afe0700000f78001e00900037
:10220000104078008080fb00000320000080600008
:102210004480de00804078001e0090000148780075
:102220001e0078000080fa00000006000800fa0096
:102230001007980021079800320798002e009000a0
:1022400080407800400020008008dd001e009000e3
:102250000040780000c04000004f7800be019000b0
:10226000120020008e00780060c1b30090fe0700cd
:102270000080fa00000006000600fa00100798002f
:1022800021079800ae019000120020009e009000ef
:1022900070c1b30072fe0700000f78001e009000ae
:1022a000104078000080fb004700de00804078008e
:1022b0001e009000014878001e0078000080fa009f
:1022c000000006000600fa00100798002107980099
:1022d000ae019000120020009e00900070c1b3007b
:1022e0005ffe0700000f78001e009000104078008d
:1022f000ef4060001e009000014878001e0078004a
:102300000080fa00000006000800fa00100798009c
:1023100021079800320798001e0090008040780046
:10232000700020008008dd002e0090000040780042
:1023300000c04000004f7800be0190001200200055
:102340008e00780070c1b30059fe07000080fa00cb
:10235000000006000200fa00000f78001e0078005e
:102360008001eb002200200080007800a0c1b300b3
:102370003bfe07000080fa00000006000400fa009f
:10238000000f7800110798000e0078009e01900061
:102390002200200080007800a0c1b30044fe0700a6
:1023a0000080fa00000006000a00fa0030079800da
:1023b000410798000e80e800ce0190004200200006
:1023c00080007800c0c1b30025fe0700000f780030
:1023d000ae4090003e009000014878003e409000e2
:1023e000f2c3b300824060003e00900011409800ac
:1023f0003e4090000080fb004600de0080407800f8
:102400003e00900021409800ce4090003e00900099
:10241000314098005e4090000080fb00cf80de00dd
:102420007bfa07000200200003f02300d0fa070027
:102430003e01900020019800310198001e007800b4
:102440000080fa00000006001200fa0070079800f1
:10245000010f98007e0090001040780020479800ff
:102460007e00900010409000804078007e00900038
:10247000204090000080fb004600dd000040780016
:1024800000c07000304798007e00900030409000ff
:10249000404798000e80e8008e099000320020002e
:1024a00080007800c0c1b30001fe0700000f780073
:1024b0001e007800e10f5000020032001e0078007c
:1024c0001c0037000e0890000000e00006003a00f3
:1024d0007e009000b0009000200090000001eb0012
:1024e0004900070013003700660047008000eb003a
:1024f000adff07001e0f60008000eb007e00900023
:10250000d1ff07001e0f60007e009000b000900019
:10251000200090000e0990003b0007001e0f600095
:10252000660047008000eb00c7ff07001e0f600039
:102530001e0078000080fa00000006000800fa0083
:1025400020079800310798002e0090001040780076
:10255000004f78002e0090001040900080407800de
:102560002e009000204090000080fb004600dd001f
:102570000040780000c07000104798002e009000c6
:102580003040900020479800be01900032002000ab
:102590008e007800c0c1b300c5fd07000080fa00be
:1025a000000006000400fa00000f780011079800f0
:1025b0000e0078009e01900012002000800078003c
:1025c000c0c1b300bafd07000080fa000000060099
:1025d0000400fa00000f7800110798001e00780030
:1025e0008000eb00010878001e0078009e0190003a
:1025f0001200200080007800c0c1b30098fd0700e1
:102600000080fa00000006000800fa001007980099
:1026100021079800320798001e009000ae0090003d
:102620000001be005bf807000200200003f0230059
:1026300058f80700baf90700000078000040780059
:10264000004f7800be019000120020008e0078003c
:10265000f0c1b30096fd07000080fa0000000600fc
:102660000800fa0020079800310798000040eb00ae
:10267000204798000e80e800be0190001200200064
:1026800080007800f0c1b30075fd0700000f7800ee
:102690002e4090000080fb008000eb00dff9070077
:1026a0000200200003f0230031fa07002e01900001
:1026b0000089be001e0078000080fa0000000600bd
:1026c0000400fa00000f7800110798009e019000a6
:1026d000120020009e00780020c2b30060fd0700b9
:1026e0000080fa00000006000400fa00004f7800a5
:1026f000110798009e019000120020008e007800c3
:1027000020c2b3006afd07000080fa000000060046
:102710000400fa00000f7800110798009e01900055
:10272000120020009e00780030c2b3004cfd07006c
:102730000080fa00000006000400fa00004f780054
:10274000110798009e019000120020008e00780072
:1027500030c2b30056fd07000080fa0000000600fa
:102760000400fa00000f7800110798001e0078009e
:102770009e019000c20020008000780000c3b300da
:1027800037fd07000080fa00000006000e00fa0086
:10279000000f78001107980022079800330798006f
:1027a0004407980055079800660798000e007800c7
:1027b000ee019000c20020008000780000c3b3004a
:1027c0003bfd07000080fa00000006000400fa004c
:1027d000000f7800110798001e0078009e019000fd
:1027e000c200200080007800c0c3b3001cfd0700b9
:1027f0000080fa00000006000400fa00000f7800d4
:10280000110798001e0078009e019000120320001e
:102810008000780000c5b30011fd07000080fa00b9
:10282000000006003800fa00201f9800311f9800b1
:102830000e80e800be19900012032000800078008e
:1028400000c5b30006fd0700000f78001e009000d1
:10285000ae00900071f9070002002000a347240099
:10286000b3f807000001be002e189000f10f200001
:102870008100610010427800604262008140720075
:1028800001487800c810de001042900060426200eb
:102890008140720011409800f10f2000818061009a
:1028a0002042900060426200814072002140980006
:1028b000c818de0030419000604161008140710025
:1028c000314098003e009000cf80de0050f90700b4
:1028d0000001be002e189000f10f20008100610061
:1028e0004042900060426200814072004140980086
:1028f000c810de00504290006042620081407200c9
:1029000051409800f10f20008180610060429000ea
:10291000604262008140720061409800c818de0089
:1029200070419000604161008140710071409800e9
:102930004e009000cf80de0035f907000001be0098
:102940002e189000f10f200081006100004a9000d5
:10295000604262008140720001489800c810de00a9
:10296000104a900060426200814072001148980055
:10297000f10f200081806100204a900060426200d7
:102980008140720021489800c818de00304990004c
:102990006041610081407100314898005e00900004
:1029a000cf80de001af907000001be002e1890004b
:1029b000f10f200081006100404a900060426200f7
:1029c0008140720041489800c810de00504a9000d3
:1029d000604262008140720051489800f10f20006f
:1029e00081806100604a9000604262008140720014
:1029f00061489800c818de0070499000604161008d
:102a000081407100714898006e009000cf80de0018
:102a1000fff80700020020000318240044f8070014
:102a20000001be002e189000f10f2000810061000f
:102a30000052900060426200814072000150980094
:102a4000c810de00105290006042620081407200a7
:102a500011509800f10f20008180610020529000f9
:102a6000604262008140720021509800c818de0068
:102a700030519000604161008140710031509800f8
:102a80007e009000cf80de00e1f807000200200009
:102a90000318240026f807000001be002e1890003d
:102aa000f10f2000810061004052900060426200fe
:102ab0008140720041509800c810de0050529000d2
:102ac000604262008140720051509800f10f200076
:102ad000818061006052900060426200814072001b
:102ae00061509800c818de0070519000604161008c
:102af00081407100715098000e089000cf80de0078
:102b0000c3f80700020020000318240008f807009b
:102b10000001be002e189000f10f2000810061001e
:102b2000005a900060426200814072000158980093
:102b3000c810de00105a90006042620081407200ae
:102b400011589800f10f200081806100205a9000f8
:102b5000604262008140720021589800c818de006f
:102b600030599000604161008140710031589800f7
:102b70001e089000cf80de00a5f8070002002000ac
:102b800003182400eaf707000001be002e18900089
:102b9000f10f200081006100405a90006042620005
:102ba0008140720041589800c810de00505a9000d1
:102bb000604262008140720051589800f10f20007d
:102bc00081806100605a9000604262008140720022
:102bd00061589800c818de0070599000604161008b
:102be00081407100715898002e089000cf80de005f
:102bf00087f807000200200003182400ccf7070024
:102c00000001be002e189000f10f2000810061002d
:102c10000062900060426200814072000160980092
:102c2000c810de00106290006042620081407200b5
:102c300011609800f10f20008180610020629000f7
:102c4000604262008140720021609800c818de0076
:102c500030619000604161008140710031609800f6
:102c60003e089000cf80de0069f8070002002000d7
:102c700003182400aef707000001be002e189000d4
:102c8000f10f20008100610040629000604262000c
:102c90008140720041609800c810de0050629000d0
:102ca000604262008140720051609800f10f200084
:102cb0008180610060629000604262008140720029
:102cc00061609800c818de0070619000604161008a
:102cd00081407100716098004e089000cf80de0046
:102ce0004bf80700020020000318240090f70700ab
:102cf0000001be002e189000f10f2000810061003d
:102d0000006a900060426200814072000168980091
:102d1000c810de00106a90006042620081407200bc
:102d200011689800f10f200081806100206a9000f6
:102d3000604262008140720021689800c818de007d
:102d400030699000604161008140710031689800f5
:102d50005e089000cf80de002df807000200200002
:102d60000318240072f707000001be002e1890001f
:102d7000f10f200081006100406a90006042620013
:102d80008140720041689800c810de00506a9000cf
:102d9000604262008140720051689800f10f20008b
:102da00081806100606a9000604262008140720030
:102db00061689800c818de00706990006041610089
:102dc00081407100716898006e089000cf80de002d
:102dd0000ff80700020020000318240054f7070032
:102de0000001be002e189000f10f2000810061004c
:102df0000072900060426200814072000170980091
:102e0000c810de00107290006042620081407200c3
:102e100011709800f10f20008180610020729000f5
:102e2000604262008140720021709800c818de0084
:102e300030719000604161008140710031709800f4
:102e40007e089000cf80de00f1f70700020020002e
:102e50000368240036f707000001be002e1890001a
:102e6000f10f20008100610040729000604262001a
:102e70008140720041709800c810de0050729000ce
:102e8000604262008140720051709800f10f200092
:102e90008180610060729000604262008140720037
:102ea00061709800c818de00707190006041610088
:102eb00081407100717098000e109000cf80de008c
:102ec000d3f70700020020000368240018f707006a
:102ed0000001be002e189000f10f2000810061005b
:102ee000007a900060426200814072000178980090
:102ef000c810de00107a90006042620081407200cb
:102f000011789800f10f200081806100207a9000f4
:102f1000604262008140720021789800c818de008b
:102f200030799000604161008140710031789800f3
:102f30001e109000cf80de00b5f7070002002000d1
:102f400003682400faf607000001be002e18900066
:102f5000f10f200081006100407a90006042620021
:102f60008140720041789800c810de00507a9000cd
:102f7000604262008140720051789800f10f200099
:102f800081806100607a900060426200814072003e
:102f900061789800c818de00707990006041610087
:102fa00081407100717898002e109000cf80de0073
:102fb00097f707000200200003682400dcf60700f2
:102fc0000001be002e189000f10f2000810061006a
:102fd00000c29000604262008140720001c098000f
:102fe000c810de0010c29000604262008140720092
:102ff00011c09800f10f20008180610020c2900074
:10300000604262008140720021c09800c818de0052
:1030100030c19000604161008140710031c0980072
:103020003e109000cf80de0079f707000001be005f
:103030002e189000f10f20008100610040c2900026
:10304000604262008140720041c09800c810de00fa
:1030500050c29000604262008140720051c09800ee
:10306000f10f20008180610060c290006042620028
:103070008140720061c09800c818de0070c19000e5
:10308000604161008140710071c098004e10900055
:10309000cf80de005ef707000001be002e18900012
:1030a000f10f20008100610000ca900060426200c0
:1030b0008140720001c89800c810de0010ca90005c
:1030c000604262008140720011c89800f10f200038
:1030d0008180610020ca90006042620081407200dd
:1030e00021c89800c818de0030c990006041610016
:1030f0008140710031c898005e109000cf80de00e2
:1031000043f707000001be002e189000f10f2000c9
:103110008100610040ca90006042620081407200fc
:1031200041c89800c810de0050ca9000604262009a
:103130008140720051c89800f10f20008180610029
:1031400060ca9000604262008140720061c89800cd
:10315000c818de0070c990006041610081407100b4
:1031600071c898006e109000cf80de0028f707002d
:103170000001be002e189000f10f200081006100b8
:1031800000d29000604262008140720001d098003d
:10319000c810de0010d290006042620081407200d0
:1031a00011d09800f10f20008180610020d29000a2
:1031b000604262008140720021d09800c818de0091
:1031c00030d19000604161008140710031d09800a1
:1031d0007e109000cf80de000df707000001be00da
:1031e0002e189000f10f20008100610040d2900065
:1031f000604262008140720041d09800c810de0039
:1032000050d29000604262008140720051d098001c
:10321000f10f20008180610060d290006042620066
:103220008140720061d09800c818de0070d1900013
:10323000604161008140710071d098000e189000cb
:10324000cf80de00f2f607000001be002e189000cd
:10325000f10f20008100610000da900060426200fe
:103260008140720001d89800c810de0010da90008a
:10327000604262008140720011d89800f10f200076
:103280008180610020da900060426200814072001b
:1032900021d89800c818de0030d990006041610044
:1032a0008140710031d898002e7090000080fb00a2
:1032b0008000eb00d9f607000001be002e18900038
:1032c000f10f20008100610040da9000604262004e
:1032d0008140720041d89800c810de0050da90009a
:1032e000604262008140720051d89800f10f2000c6
:1032f0008180610060da900060426200814072006b
:1033000061d89800c818de0070d990006041610053
:103310008140710071d898001e0078000080fa008a
:10332000000006000a00fa003007980041079800e4
:103330000e80e800ce01900042002000800078005e
:1033400000c5b30046fa0700000f78001e00900089
:10335000ae009000b1f6070002002000a347240051
:10336000f3f507003e0190000089be001e007800c2
:103370000080fa00000006000c00fa0040079800e8
:10338000510798000000eb00100798000000eb00c8
:10339000200798000000eb00300798000e80e8003e
:1033a000de019000620020008000780040c5b3007c
:1033b0002bfa0700000f78001e009000cf80de007f
:1033c00093f607000001be004e009000f10f2000b0
:1033d000810061001042780060426200814072000a
:1033e00001487800c810de00104290006042620080
:1033f0008140720011409800f10f2000818061002f
:10340000204290006042620081407200214098009a
:10341000c818de00304190006041610081407100b9
:10342000314098002e009000cf80de0078f6070033
:103430000001be004e009000f10f200081006100ed
:10344000404290006042620081407200414098001a
:10345000c810de005042900060426200814072005d
:1034600051409800f10f200081806100604290007f
:10347000604262008140720061409800c818de001e
:10348000704190006041610081407100714098007e
:103490003e009000cf80de005df607000001be0018
:1034a0004e009000f10f200081006100004a900062
:1034b000604262008140720001489800c810de003e
:1034c000104a9000604262008140720011489800ea
:1034d000f10f200081806100204a9000604262006c
:1034e0008140720021489800c818de0030499000e1
:1034f0006041610081407100314898001e007800f1
:103500000080fa00000006000400fa00000f7800b6
:10351000110798001e0078009e01900022002000f4
:1035200080007800e0c4b300cdf907000080fa0005
:10353000000006000c00fa004007980051079800b0
:103540000000eb00100798000000eb002007980037
:103550000000eb00300798000e80e800de019000cc
:103560006200200080007800a0c5b300bcf907000d
:10357000000f78001e009000cf80de0024f60700c8
:10358000020020000318240069f507000001be00b6
:103590004e009000f10f2000810061001042780081
:1035a000604262008140720001487800c810de006d
:1035b0001042900060426200814072001140980009
:1035c000f10f200081806100204290006042620083
:1035d0008140720021409800c818de003041900000
:1035e0006041610081407100314098002e009000e0
:1035f000cf80de0006f6070002002000031824003a
:103600004bf507000001be004e009000f10f2000b6
:10361000810061004042900060426200814072007f
:1036200041409800c810de005042900060426200a5
:103630008140720051409800f10f200081806100ac
:1036400060429000604262008140720061409800d8
:10365000c818de0070419000604161008140710037
:10366000714098003e009000cf80de00e8f5070032
:1036700002002000031824002df507000001be0001
:103680004e009000f10f200081006100004a900080
:10369000604262008140720001489800c810de005c
:1036a000104a900060426200814072001148980008
:1036b000f10f200081806100204a9000604262008a
:1036c0008140720021489800c818de0030499000ff
:1036d0006041610081407100314898001e0078000f
:1036e0000080fa00000006000c00fa004007980075
:1036f000510798000000eb00100798000000eb0055
:10370000200798000000eb00300798000e80e800ca
:10371000de019000620020008000780000c6b30047
:103720004ff90700000f78001e009000cf80de00e8
:10373000b7f507000200200003182400fcf407007e
:103740000001be004e009000f10f200081006100da
:1037500010427800604262008140720001487800a7
:10376000c810de001042900060426200814072008a
:1037700011409800f10f20008180610020429000ec
:10378000604262008140720021409800c818de004b
:1037900030419000604161008140710031409800eb
:1037a0002e009000cf80de0099f507000200200077
:1037b00003182400def407000001be004e00900054
:1037c000f10f2000810061004042900060426200e1
:1037d0008140720041409800c810de0050429000c5
:1037e000604262008140720051409800f10f200059
:1037f00081806100604290006042620081407200fe
:1038000061409800c818de0070419000604161007e
:1038100081407100714098003e009000cf80de0032
:103820007bf507000200200003182400c0f4070005
:103830000001be004e009000f10f200081006100e9
:10384000004a900060426200814072000148980086
:10385000c810de00104a9000604262008140720091
:1038600011489800f10f200081806100204a9000eb
:10387000604262008140720021489800c818de0052
:1038800030499000604161008140710031489800ea
:103890001e0078000080fa00000006000c00fa000c
:1038a00040079800510798000000eb0010079800af
:1038b0000000eb00200798000000eb0030079800a4
:1038c0000e80e800de019000620020008000780099
:1038d00060c6b300e2f80700000f78001e009000f9
:1038e000cf80de004af50700020020000318240004
:1038f0008ff407000001be004e009000f10f200081
:1039000081006100104278006042620081407200d4
:1039100001487800c810de0010429000604262004a
:103920008140720011409800f10f200081806100f9
:103930002042900060426200814072002140980065
:10394000c818de0030419000604161008140710084
:10395000314098002e009000cf80de002cf507004b
:10396000020020000318240071f407000001be00cb
:103970004e009000f10f2000810061004042900055
:10398000604262008140720041409800c810de0031
:1039900050429000604262008140720051409800a5
:1039a000f10f20008180610060429000604262005f
:1039b0008140720061409800c818de00704190009c
:1039c0006041610081407100714098003e009000ac
:1039d000cf80de000ef5070002002000031824004f
:1039e00053f407000001be004e009000f10f2000cc
:1039f00081006100004a90006042620081407200d4
:103a000001489800c810de00104a90006042620031
:103a10008140720011489800f10f20008180610000
:103a2000204a900060426200814072002148980064
:103a3000c818de003049900060416100814071008b
:103a4000314898001e0078000080fa00000006004f
:103a50000e00fa0050079800610798006000b80057
:103a60006011b800100798002107980032079800ed
:103a7000430798000e80e800ee01900082002000cd
:103a800080007800c0c6b30075f80700000f78000a
:103a90001e009000cf80de00ddf407000200200051
:103aa0000368240022f407000001be005e009000bd
:103ab000f10f200081006100104278006042620036
:103ac0008140720001487800c810de00104290006a
:103ad000604262008140720011409800f10f2000a6
:103ae000818061002042900060426200814072004b
:103af00021409800c818de0030419000604161000c
:103b000081407100314098002e009000cf80de008f
:103b1000bff40700020020000368240004f407003b
:103b20000001be005e009000f10f200081006100e6
:103b30004042900060426200814072004140980023
:103b4000c810de0050429000604262008140720066
:103b500051409800f10f2000818061006042900088
:103b6000604262008140720061409800c818de0027
:103b70007041900060416100814071007140980087
:103b80003e009000cf80de00a1f40700020020007c
:103b900003682400e6f307000001be005e00900009
:103ba000f10f200081006100004a90006042620035
:103bb0008140720001489800c810de00104a900051
:103bc000604262008140720011489800f10f2000ad
:103bd00081806100204a9000604262008140720052
:103be00021489800c818de0030499000604161000b
:103bf00081407100314898004e009000cf80de0077
:103c000083f407000200200003682400c8f30700c3
:103c10000001be005e009000f10f200081006100f5
:103c2000404a900060426200814072004148980022
:103c3000c810de00504a900060426200814072006d
:103c400051489800f10f200081806100604a900087
:103c5000604262008140720061489800c818de002e
:103c60007049900060416100814071007148980086
:103c70001e0078000080fa00000006000c00fa0028
:103c800040079800510798000000eb0010079800cb
:103c90000000eb00200798000000eb0030079800c0
:103ca0000e80e800de0190006200200080007800b5
:103cb00040c7b300eaf70700000f78001e0090002d
:103cc000cf80de0052f407000001be004e009000dd
:103cd000f10f200081006100104278006042620014
:103ce0008140720001487800c810de001042900048
:103cf000604262008140720011409800f10f200084
:103d00008180610020429000604262008140720028
:103d100021409800c818de003041900060416100e9
:103d200081407100314098002e009000cf80de006d
:103d300037f407000001be004e009000f10f200094
:103d40008100610040429000604262008140720048
:103d500041409800c810de0050429000604262006e
:103d60008140720051409800f10f20008180610075
:103d700060429000604262008140720061409800a1
:103d8000c818de0070419000604161008140710000
:103d9000714098003e009000cf80de001cf40700c8
:103da0000001be004e009000f10f20008100610074
:103db000004a900060426200814072000148980011
:103dc000c810de00104a900060426200814072001c
:103dd00011489800f10f200081806100204a900076
:103de000604262008140720021489800c818de00dd
:103df0003049900060416100814071003148980075
:103e00001e0078000080fa00000006000c00fa0096
:103e100040079800510798000000eb001007980039
:103e20000000eb00200798000000eb00300798002e
:103e30000e80e800de019000620020008000780023
:103e4000a0c7b30086f70700000f78001e0090009f
:103e5000cf80de00eef307000001be004e009000b0
:103e6000f10f200081006100104278006042620082
:103e70008140720001487800c810de0010429000b6
:103e8000604262008140720011409800f10f2000f2
:103e90008180610020429000604262008140720097
:103ea00021409800c818de00304190006041610058
:103eb00081407100314098002e009000cf80de00dc
:103ec000d3f307000001be004e009000f10f200068
:103ed00081006100404290006042620081407200b7
:103ee00041409800c810de005042900060426200dd
:103ef0008140720051409800f10f200081806100e4
:103f0000604290006042620081407200614098000f
:103f1000c818de007041900060416100814071006e
:103f2000714098003e009000cf80de00b8f307009b
:103f30000001be004e009000f10f200081006100e2
:103f4000004a90006042620081407200014898007f
:103f5000c810de00104a900060426200814072008a
:103f600011489800f10f200081806100204a9000e4
:103f7000604262008140720021489800c818de004b
:103f800030499000604161008140710031489800e3
:103f90001e0078000080fa00000006000800fa0009
:103fa00020079800310798000040eb002047980058
:103fb0000e80e800be019000120020008000780012
:103fc00000c8b30026f70700000f78002e409000cd
:103fd0000080fb00cf80de008df307002e019000f3
:103fe0000089be001e0078000080fa000000060074
:103ff0000400fa00000f7800110798009e0190005d
:10400000120020009e00780010c8b30014f70700cb
:104010000080fa00000006000400fa00000f78009b
:10402000110798001e0078009e01900022002000d9
:104030008000780020c8b30009f707000080fa006c
:10404000000006000400fa00000f78001107980035
:104050009e019000120020009e00780040c8b3002e
:10406000fff607000080fa00000006000800fa00d2
:104070001007980021079800320798001e00900052
:104080008040780040c8b30000cf4000be019000df
:1040900012002000ae0090001e407800f0f60700ed
:1040a0000080fa00000006000800fa0010079800df
:1040b00041479800320798001e0090008040780029
:1040c00040c8b30000cf400064004700be0190002c
:1040d00012002000800078001e407800f4f60700ef
:1040e0000080fa00000006000200fa00000f7800cd
:1040f0009e0278000002eb008001eb000001eb0063
:104100008000eb0000cbb300fdf607001e00780036
:104110000000e00003003a00007028003139200060
:10412000a01407000080fa00000006000600fa0054
:10413000200798000e80e800ae01900012002000d9
:104140008000780040c0b300c5f60700000f78007b
:104150001e007800e10f500002003200a0972800f6
:10416000400137002e4090000080fb00cf80de0031
:10417000f20f200003002000820f5000838f5800b0
:1041800037013e0000060100ff0037000001370044
:104190000101370002013700030137000401370035
:1041a0000501370006013700070137000801370015
:1041b000090137000a0137000b0137000c013700f5
:1041c0000d0137000e0137000f01370010013700d5
:1041d00011013700120137001301370014013700b5
:1041e00015013700160137001d0137001c0137008b
:1041f0001b0137001a013700190137001801370079
:104200001701370016013700150137001401370078
:104210001301370012013700110137001001370078
:104220000f0137000e0137000d0137000c01370078
:104230000b0137000a013700090137000801370078
:104240000701370006013700050137000401370078
:104250000301370002013700010137000001370078
:10426000ff003700fe003700fd003700fc0037007c
:10427000fb003700fa003700f9003700f80037007c
:10428000f7003700f6003700f5003700f40037007c
:10429000f3003700f2003700f1003700f00037007c
:1042a000ef003700ee003700ed003700ec0037007c
:1042b000eb003700ea003700e9003700e80037007c
:1042c000e7003700e6003700e5003700e40037007c
:1042d000e3003700e2003700e1003700e00037007c
:1042e000df003700de003700dd003700dc0037007c
:1042f000db003700da003700d9003700d80037007c
:10430000d7003700d6003700d5003700d40037007b
:10431000d3003700d2003700d1003700d00037007b
:10432000cf003700ce003700cd003700cc0037007b
:10433000cb003700ca003700c9003700c80037007b
:10434000c7003700c6003700c5003700c40037007b
:10435000c3003700c2003700c1003700c00037007b
:10436000bf003700be003700bd003700bc0037007b
:10437000bb003700ba003700b9003700b80037007b
:10438000b7003700b6003700b5003700b40037007b
:10439000b3003700b2003700b1003700b00037007b
:1043a000af003700ae003700ad003700ac0037007b
:1043b000ab003700aa003700a9003700a80037007b
:1043c000a7003700a6003700a5003700a40037007b
:1043d000a3003700a2003700a1003700a00037007b
:1043e0009f0037009e0037009d0037009c0037007b
:1043f0009b0037009a00370099003700980037007b
:10440000970037009600370095003700940037007a
:10441000930037009200370091003700900037007a
:104420008f0037008e0037008d0037008c0037007a
:104430008b0037008a00370089003700880037007a
:10444000870037008600370085003700840037007a
:10445000830037008200370081003700800037007a
:104460007f0037007e0037007d0037007c0037007a
:104470007b0037007a00370079003700780037007a
:10448000770037007600370075003700740037007a
:10449000730037007200370071003700700037007a
:1044a0006f0037006e0037006d0037006c0037007a
:1044b0006b0037006a00370069003700680037007a
:1044c000670037006600370065003700640037007a
:1044d000630037006200370061003700600037007a
:1044e0005f0037005e0037005d0037005c0037007a
:1044f0005b0037005a00370059003700580037007a
:104500005700370056003700550037005400370079
:104510005300370052003700510037005000370079
:104520004f0037004e0037004d0037004c00370079
:104530004b0037004a003700490037004800370079
:104540004700370046003700450037003e0037007f
:104550004300370042003700410037004000370079
:104560003f0037003e0037003d0037003c00370079
:104570003b0037003a003700390037003800370079
:104580003300370034003700909a28003500370098
:10459000a09a280033003700609e280031003700c1
:1045a00030a228002f003700d0a528002d003700aa
:1045b000c0a928002b00370070ad28002900370063
:1045c00070b028002700370020b4280025003700ed
:1045d00010b628002300370020b92800210037003a
:1045e000b0bc28001f003700a0bf28001d00370006
:1045f00000c328001b00370020c72800190037001f
:1046000090ca28001700370010cc2800150037008a
:10461000a0cd28001300370050cf2800110037002c
:1046200010d128000f003700d0d228000d0037002d
:1046300050d428000b003700d0d5280009003700df
:10464000c0d728000700370000da2800050037002f
:10465000f0db28000300370040e0280001003700ad
:10466000e0e128000080fa00000006000800fa00df
:104670001007980041479800320798001e009000ec
:1046800063004000110020000008dd008040780039
:104690004e4090000081fb001e0090000000e900e9
:1046a0000010dd000040780000c07000004f78006e
:1046b000be0290000002eb008001eb00120020001f
:1046c0008e00780010cbb3008df507000080fa0053
:1046d000000006000800fa00200798003107980043
:1046e000a20020008000eb003e009000faf20700dc
:1046f0000040eb00204798000e80e80012002000e8
:104700008000780050c0b3007e06070064004700b8
:104710000002eb008001eb00220020008000780006
:1047200050cbb30044070700000f78001e0078004c
:10473000e10f500016003a000e80e80000017800fa
:104740004106200010c1b300e90507000004e000a5
:104750000d0032002e4090000080fb0061006000e0
:10476000004078000004e000020032000000eb008e
:10477000080037002e0090000001eb00be00900002
:1047800050040700030037008000200001003700bc
:104790000000eb000080fa00000006000800fa00ac
:1047a0001007980021079800320798003e009000fb
:1047b00090407800e0c06000014878009040900090
:1047c000e0c0600011409800a0409000e0c0600090
:1047d00021409800b0409000e0c060003140980057
:1047e0003e009000c0409000e0c060004140980052
:1047f000d0409000e0c0600051409800e040900040
:10480000e0c0600061409800f0409000e0c06000af
:10481000714098003e00900080489000e0c0600029
:104820000148980090489000e0c06000114898004e
:10483000640047008002eb000002eb002300200030
:104840000001780051cbb3001e0090008c080700d7
:10485000000f78001e007800e10f50000d003a00b4
:104860000001eb004106200080c0b300a005070056
:104870000004e000050032002e0090001e019000b0
:10488000be0090000f0407000300370080002000e6
:10489000010037001e0078000080fa0000000600ca
:1048a0000c00fa0020079800614798004207980022
:1048b000530798006e409000e14f500006003a0008
:1048c00068004700420020008000780080c3b300e9
:1048d00076060700000f78000040eb0020479800a4
:1048e0000e80e800120020008000780050c0b30065
:1048f000040607000002eb008001eb000001eb0062
:104900008000eb0060cbb300cb060700000f7800ff
:104910001e007800e10f5000020032000000eb00a2
:10492000160037000e80e80000017800813e20006c
:1049300030c0b3006e0507000004e0000e00320036
:104940002e4090000080fb00610060000040780075
:104950000004e000020032000000eb000700370016
:104960008000eb002e0090007df70700000f78001c
:104970001000200001003700800020000080fa00b5
:10498000000006001600fa00889fbe00500798003d
:10499000414f980072079800030f9800140f980079
:1049a000250f98000f0478000f007800800478002d
:1049b000ce489000f0cab30080cf5000040036000b
:1049c000ce489000b0cbb30080cf50000a00360034
:1049d000ce489000f0cbb30080cf500004003600ea
:1049e000ce48900080ccb30080cf5000020036004b
:1049f0000000eb004e0037000000eb00000f7800d5
:104a00000e0890000080e8008000e900110798007f
:104a10000000e8000000e8000000d1008000400035
:104a20000f007800818747000000e8000000d100f7
:104a300000004000200798002e0090008040eb000e
:104a4000014878002e009000ce4890001140980058
:104a50008e0890002e0090000080e8000101780090
:104a6000fe00900015f207000e0890008080e8001c
:104a70002e0090000002eb008001eb0001017800a5
:104a80008000780020cbb3006b060700000f780091
:104a90001e0078000000e00002003a001e007800ce
:104aa000230037005e0090000040780060479800c7
:104ab0005e0090004800de000040780070479800db
:104ac00080c0b300004f98000040eb00104f9800ea
:104ad00069004700120020008000780050c0b30039
:104ae00088050700660047000002eb008001eb002c
:104af000320020008000780030cbb3004e06070063
:104b0000000f78001e0078000000e00002003a006c
:104b10001e00780006003700690047000001780099
:104b20004101200010c1b300f10407001e0078000d
:104b300089077800880778004f04be000080fa00db
:104b4000000006001c00fa00100f9800210f9800ca
:104b500062579800440f9800550f98002e08900057
:104b600090407800e0c060000148780090409000dc
:104b7000e0c0600011409800a0409000e0c06000dc
:104b800021409800b0409000e0c0600031409800a3
:104b90002e089000c0409000e0c0600041409800a6
:104ba000d0409000e0c0600051409800e04090008c
:104bb000e0c0600061409800f0409000e0c06000fc
:104bc000714098002e08900080489000e0c060007e
:104bd0000148980090489000e0c06000114898009b
:104be000a0489000e0c0600021489800b0489000c4
:104bf000e0c06000314898006e509000e14f5000d6
:104c000009003a00780047004300200000017800c6
:104c100081c3b3001e08900065060700007c2200d7
:104c200091002000df110700690047008000eb00c1
:104c300057f407001e489000f24f5000380036002d
:104c400010c0b300204f98000040eb00304f980098
:104c50006a0047008002eb000002eb002300200006
:104c60000001780061cbb3001e08900045ff0700eb
:104c7000000f78000001eb00813e200080c0b300ef
:104c80009b0407000004e000230032000040eb001a
:104c9000404f98000040eb00504f98000040eb0060
:104ca000604f98006c0047003200200080007800c0
:104cb00020c8b300130507004e4890008080fb0019
:104cc0005e4890000080fb004800dd00008040004e
:104cd00010079800ee489000414798009e00900011
:104ce0001e089000808f500009003a004e4090004e
:104cf000ed4f500006003a002e089000c100200041
:104d000088080700000f78001e0078003e0037007a
:104d10000000eb003c003700800020003a00370024
:104d20008002eb000002eb008001eb000001eb00d1
:104d300061cbb3001e08900051070700000f7800f8
:104d40001e007800e10f50000500320000f029003d
:104d500041022000931107001e0078002a0037004e
:104d60000001eb00813e200080c0b300600407001a
:104d70000004e000230032000040eb00704f980078
:104d80000040eb00005798000040eb0010579800df
:104d90006f004700320020008000780020c8b30078
:104da000d80407007e4890008080fb000e509000e1
:104db0000080fb004800dd000080400030079800c4
:104dc0009e509000014f9800be0090001e08900079
:104dd000808f500009003a000e489000ec4f5000c0
:104de00006003a002e089000c10020004d08070080
:104df000000f78001e007800030037000000eb0071
:104e000001003700800020000080fa00000006004a
:104e10000600fa00000f780011079800220798009a
:104e20001e00900000004000800078001e00780006
:104e3000ae0290000002eb008001eb00010178005f
:104e40008000780070cbb300adf307000080fa005b
:104e5000000006000800fa001007980021079800db
:104e6000320798000040eb00004f7800be00900031
:104e70000e00780013f50700e10f50000200320029
:104e80000000eb00120037001e4078008080fb001d
:104e90002e009000808f500002003d000000eb00cb
:104ea0000b0037002e0090000000400080007800ca
:104eb0001e009000be029000010278008001780080
:104ec0000001eb008000eb0080cbb3008cf3070007
:104ed0000080fa00000006000c00fa00300798007d
:104ee00041079800520798000040eb0020479800c7
:104ef0000e80e800de0090003dfc0700000f780007
:104f00001e007800e10f500005003a002e4090008e
:104f10008080fb004e009000808f500002003d001a
:104f20000000eb00110037004e00900000407800b8
:104f30008040eb0031479800404798004e009000b9
:104f40000000400000017800be00900063004700b0
:104f5000de02900002027800810178002200200029
:104f60008000780000ccb30065f307000080fa00f1
:104f7000000006001400fa00889fbe007007980029
:104f8000010f9800120f98000f0478000f007800ae
:104f9000800478000040eb00204f98006a00470032
:104fa0009e08900012fc0700200798002e00900039
:104fb000e10f500005003a002e4890008080fb0071
:104fc0000e089000808f500002003d000000eb00b2
:104fd000600037002e4890008080fb008100e900cf
:104fe000310798000080fb00000040000000e8004e
:104ff0000000e8000000d100800040000f007800b1
:10500000818747000000e8000000d1000000400058
:10501000400798002e4890000080fb0000004000f0
:10502000800078004e0090008002eb0001027800c2
:10503000800178000001eb008000eb0000ccb300a1
:105040002ff30700200798002e009000e10f50007a
:105050003f003a000000eb00000f78000700370027
:105060001e00780000004000fe009000008040001c
:105070008000eb00010878001e0fe8000e08900089
:105080009e007800808f5000f5ff35000000eb0097
:10509000100798000000eb00000f78002200370096
:1050a0000040eb00304f98000040eb00404f98006c
:1050b0000040eb00504f9800ce0090001e0078009a
:1050c0000000400000804000eb004700340020005a
:1050d00081017800220020008000780050ccb300cd
:1050e000d50407005e489000e14f50000d003a00e3
:1050f0001e00900000004000fe00900080804000f4
:105100004e0190001e0078000000400000004100a9
:1051100010007800800878001e0090000000e80071
:10512000100798001e0fe8002e4890000080fb003a
:105130009e0f5000daff3c009e0090000e08900089
:10514000808f500002003d000000eb00010037009e
:105150002e00900089077800880778004f04be0071
:105160000080fa00000006001400fa00889fbe00cc
:1051700070079800010f9800120f98000f04780034
:105180000f007800800478000040eb00204f98006a
:105190006a0047009e08900095fb070020079800d2
:1051a0002e0090000000e000050032002e48900024
:1051b0008080fb000e089000808f500002003d00b0
:1051c0000000eb00600037002e4890008080fb005c
:1051d0008100e900310798000080fb0000004000da
:1051e0000000e8000000e8000000d100800040005e
:1051f0000f007800818747000000e8000000d10020
:1052000000004000400798002e4890000080fb00fe
:1052100000004000800078004e0090009e0a900040
:1052200001027800800178000001eb008000eb00b3
:1052300000ccb300b2f20700200798002e009000c7
:10524000e10f50003f003a000000eb00000f780033
:10525000070037001e00780000004000fe009000ac
:10526000008040008000eb00010878001e0fe8007d
:105270000e0890009e007800808f5000f5ff3500ea
:105280000000eb00100798000000eb00000f780012
:10529000220037000040eb00304f98000040eb0048
:1052a000404f98000040eb00504f9800ce00900017
:1052b0001e0078000000400000804000eb00470026
:1052c0003400200081017800220020008000780056
:1052d00050ccb300580407005e489000e24f5000e5
:1052e0000d003a001e00900000004000fe009000fb
:1052f000808040004e0190001e00780000004000b9
:105300000000410010007800800878001e00900026
:105310000000e800100798001e0fe8002e489000db
:105320000080fb009e0f5000daff3c009e009000c2
:105330000e089000808f500002003d000000eb003e
:10534000010037002e009000890778008807780058
:105350004f04be000080fa00000006000e00fa00b4
:105360004007980051079800620798004e0090008f
:1053700000407800404798005e00900000407800b0
:10538000504798006e0090000040780060479800f9
:105390000040eb00704798006700470012002000b3
:1053a0008000780050c0b300560307006400470037
:1053b0000002eb008001eb0032002000800078004a
:1053c00010ccb3001c040700000f78001e0078000a
:1053d000e10f5000020032001e0078001700370075
:1053e0005e009000f40040006e0090008088b900dc
:1053f0001007980067004700000178009e009000a9
:1054000010c1b300ba0207000004e0000a00320035
:105410007e4090000080fb0061006000004078004a
:105420000004e000020032000000eb00030037003f
:105430001000200001003700800020000080fa00ea
:10544000000006002200fa00889fbe008a1f780034
:10545000400f9800510f9800620f9800730f98004a
:10546000041798000f0478004e089000e10f5000d8
:1054700092003a000000eb00000f78008b0037002c
:105480001e00780000004000fe08900000804000f0
:1054900010007800f10f2000810060001e4990008c
:1054a0006041610081407100114f98004800de00aa
:1054b000ae489000e0c0600000c07000204f98002f
:1054c00010c0b300304f98004e489000604060001c
:1054d000404f98005e48900060406000504f980038
:1054e0006e48900060406000604f98007e489000d9
:1054f00060406000704f98000e5090006040600067
:10550000005798001e5090006040600010579800af
:105510002e50900060406000205798003e50900050
:1055200060406000305798001e0078004200dd00a7
:105530008e109000008040009000900010007800d5
:10554000f20f200002016000ce519000e0c1610026
:1055500002c17100425798004801de00de51900000
:10556000e0c1610002c1710052579800f20f2000a3
:1055700002816000ee519000e0c1610002c1710043
:10558000625798004808de00fe509000e0c06000be
:1055900000c07000705798000000eb00801f78007a
:1055a0001e4890000080fb00ae4890008180fb0008
:1055b000c808dd00810070000000eb0001007800e9
:1055c000be4890008180fb004e4990000281fb00a4
:1055d0004811dd00028170008000eb00820078003d
:1055e0005e4990000281fb00ee4990008381fb0040
:1055f000c819dd00830171000001eb000301780090
:10560000fe4990008381fb000e5290000482fb0053
:105610004822dd00048271008001eb0084017800e3
:105620001e5290000482fb00ae5290008582fb0067
:10563000c82add00850272000002eb000502780036
:10564000be5290008582fb004e5390000683fb0003
:105650004833dd00068372008002eb00860278008a
:105660005e5390000683fb00ee5390008783fb009f
:10567000c83bdd00870373000003eb0007037800dd
:10568000fe5390000785fb008003eb00f90f20001c
:10569000890465000af02f008a8363008783740001
